:0400000004EF01F018
:08000800046ED8CF05F0E0CF33
:1000100006F00001E9CF0CF0EACF07F0E1CF08F0DD
:10002000E2CF09F0D9CF0AF0DACF0BF0F3CF12F01C
:10003000F4CF13F0FACF14F0F5CF15F0F6CF16F099
:10004000F7CF17F000C00EF001C00FF002C010F0A3
:1000500003C011F0F2AA30EF00F0F2B457EF00F055
:100060000EC000F00FC001F010C002F011C003F08C
:100070000CC0E9FF07C0EAFF078E08C0E1FF09C016
:10008000E2FF0AC0D9FF0BC0DAFF12C0F3FF13C0B2
:10009000F4FF14C0FAFF15C0F5FF16C0F6FF17C035
:1000A000F7FF045006C0E0FF05C0D8FF1000F2942F
:1000B000630ED76EAB0ED66E19A202D01A2A01D0EB
:1000C0001A061A50040802E11A6A04D01A3C02D037
:1000D000030E1A6E1980F29430EF00F0EA6A1E0ED9
:1000E000E96EEF500EE0040E016E006A002EFED79E
:1000F000012EFBD7DC0E006E002EFED70000EF2E87
:10010000F2D7120093801D9081A01D8093821D92D2
:1001100081A21D82000E1DB0010E1F6E000E1DB2C9
:10012000010E1F181AE01DA006D0640E1E6ED6DF49
:100130001DA001D019821DA206D0640E1E6ECEDF56
:100140001DA201D0199219A407D01994630ED76E7D
:10015000AB0ED66E830ED56E04D019B402D01984BE
:10016000D56A24EF01F019A03CD019901A50FC0F69
:100170002EE2040FF3EF00F0949E8B8E949C8B8CF8
:1001800019A203D01B2AD8B41C2A1CBE05D01C50AF
:10019000010802E21C6A1B6A1AD0949E8B8E949C02
:1001A0008B9C15D0949E8B9E949C8B9C10D0949E7F
:1001B0008B9E949C8B8C19B204D01B50D8B41C0617
:1001C0001B061CBE01D003D0010E1C6E1B681A5208
:1001D00006E11B501C1003E1949A8B8A02D0949A7A
:1001E0008B9A25EF01F0E824F76AF736010FF66ED7
:1001F000020EF7220A00F550FA6E0800F550F96E6B
:1002000078019A01A401AE01F86AD09E078EEA6ACD
:10021000E96A1990199219941A6A1C6A1B6AC180BA
:10022000C182C184C196630ED76EAB0ED66ED56AFD
:10023000F294E00EF212F19E1A6A949E8B9E949CA8
:100240008B9C949A8B8A5ED78ED7FDD7000E016E59
:020250000300A9
:020000040030CA
:0E00000000220E0E000181000FC00FE00F4025
:00000001FF
;PIC18F252
;CRC=A5DA  CREATED="18-ago-14 10:20"
