:1000000081EF00F048656C6C6F20256C750A0D005F
:100010000900F6CF09F0F7CF0AF0F5509EA8FED7F9
:10002000AD6E09C0F6FF0AC0F7FF082EF1D7AEEF9C
:1000300000F0EACF10F0E9CF0FF00938F0090B6EAD
:100040000B26E20F0C6E320F0E6E09500F0B0C26B2
:100050000C260E26E90F0D6E0D260D2608380F0B07
:100060000D260E260D360E360E1E0E3608500F0BC0
:100070000E260B36070E0A6E0A0E0D060E26FDE33F
:100080000C060D26FDE30B060C26FDE30A060B26E7
:10009000FDE3EA6A0A0EE96E070E0F140F9CE926CB
:1000A0000E0EE95CD8B40F8CEF50006E08E10FBC67
:1000B00006D00FB80CD00FB602D0200E03D00F869A
:1000C0000F98300E002600509EA8FED7AD6EEE5061
:1000D0000FACE6D7B5EF00F0EA6A060EE96EEF5016
:1000E0000EE0040E016E006A002EFED7012EFBD733
:1000F000DC0E006E002EFED70000EF2EF2D7C0EF10
:1001000000F0F86AD09EFE0E006E060E016E020E22
:10011000E96E000EEA6EEE6A002EFDD7012EFBD7C7
:10012000EA6AE96A610EAF6EA60EAC6E900EAB6E17
:10013000056A046AC180C182C184C19605C003F00A
:100140000450042AD8B4052A066E03C007F0040E32
:10015000F66E000EF76E060E086E5AD7100EE96E98
:1001600007C009F006C008F064D70A0E9EA8FED7A3
:10017000AD6E0D0E9EA8FED7AD6E640E066EACD7AA
:08018000DDD7000E016E030043
:020000040030CA
:0E00000000220E0E000181000FC00FE00F4025
:00000001FF
;PIC18F252
;CRC=54A8  CREATED="12-ago-14 11:24"
