:100000004FEF00F0F76A140FF66E000EF7220900AA
:10001000F550120063756B6965723100F76A2C0F39
:10002000F66E000EF7220900F550120063756B6939
:1000300065723200F76A440FF66E000EF72209006F
:10004000F550120063756B6965723300EF5210E072
:10005000EACF27F0E9CF26F0EF509EA8FED7AD6E8D
:1000600027C0EAFF26C0E9FFE92AD8B4EA2AEED77A
:100070009EEF00F0EA6A270EE96EEF500EE0040EE4
:10008000016E006A002EFED7012EFBD7DC0E006E3B
:10009000002EFED70000EF2EF2D7ABEF00F0F86A8B
:1000A000D09EFE0E006E060E016E020EE96E000E70
:1000B000EA6EEE6A002EFDD7012EFBD7EA6AE96AE6
:1000C000610EAF6EA60EAC6E900EAB6E066AC1806E
:1000D000C182C184C196EA6A070EE96E000E92DF02
:1000E0000A000900F550EE6E0009FBE1EA6A110E04
:1000F000E96E000E93DF0A000900F550EE6E00096C
:10010000FBE1EA6A1B0EE96E000E94DF0A000900AB
:10011000F550EE6E0009FBE1066A065002081FE387
:1001200006500A0DF350036A070F016E000E0322FA
:1001300001C025F0EA6A25C0E9FF88D70A0E9EA80B
:10014000FED7AD6E0D0E9EA8FED7AD6E040E266EC8
:10015000FA0E276E8FD7262EFBD7062ADED7DCD7DE
:06016000000E016E030019
:020000040030CA
:0E00000000220E0E000181000FC00FE00F4025
:00000001FF
;PIC18F252
;CRC=9673  CREATED="15-ago-14 17:05"
