:040000007CEF03F09E
:08000800046ED8CF05F0E0CF33
:1000100006F00001E9CF0CF0EACF07F0E1CF08F0DD
:10002000E2CF09F0D9CF0AF0DACF0BF0F3CF12F01C
:10003000F4CF13F0FACF14F0F5CF15F0F6CF16F099
:10004000F7CF17F000C00EF001C00FF002C010F0A3
:1000500003C011F09DAA30EF00F09EBA83EF00F0CC
:100060000EC000F00FC001F010C002F011C003F08C
:100070000CC0E9FF07C0EAFF078E08C0E1FF09C016
:10008000E2FF0AC0D9FF0BC0DAFF12C0F3FF13C0B2
:10009000F4FF14C0FAFF15C0F5FF16C0F6FF17C035
:1000A000F7FF045006C0E0FF05C0D8FF1000ACC049
:1000B000AEF0ABC0ADF0AEC003F0ADC0E9FFAEC076
:1000C000EAFFEF521CE0AEC003F0ADC0E9FFAEC0E6
:1000D000EAFFEF500A080FE1010EAD25016E000E98
:1000E000AE21036E01C0E9FFEA6EEF500D0803E197
:1000F000010E016E06D0AD2BD8B4AE2BDCD7000EAE
:10010000016E9EEF00F02750272A036A280FE96E40
:10011000000E0320EA6E9EAAFED7AECFEFFF036A61
:100120002750280F016E000E032203C0EAFF01C012
:10013000E9FFEF6AAC6B280EAB6FB9D71F9201B025
:100140001F821FA203D0275201E0276A9E9A30EF38
:1001500000F0926880CF7EF092688050F00B006EC5
:10016000003A0F0E001600500F0B016EC9EF00F0A1
:1001700094908B9094928B92D6503A26D7503B22F3
:10018000D76AD66ACCEF00F09D8AC00EF212236ABD
:10019000E0D701C025F0ECD7A8EF03F0EA6A950E8E
:1001A000E96EEF500EE0040E016E006A002EFED7DD
:1001B000012EFBD7DC0E006E002EFED70000EF2EC6
:1001C000F2D712009851016A975D03E297C000F0E0
:1001D0000CD0006A080E996F973700369851005C72
:1001E000D8B0006E0136992FF7D71200015095C094
:1001F00097F0640E986FE6DF00C095F00150300E66
:1002000007E196A30DD096B70BD096B9200E03D078
:10021000969796999681012601509EA8FED7AD6EBD
:1002200095C097F00A0E986FCDDF00C095F0015091
:10023000300E06E196B709D096A107D096B9200EE8
:10024000012601509EA8FED7AD6E300E9527955120
:100250009EA8FED7AD6E1200140E956F9FDF92C060
:1002600095F0010E966FC2DF93C095F0010E966F68
:10027000BDDF0A0E9EA8FED7AD6E0D0E9EA8FED75E
:10028000AD6E93C001F0120093807F9081A07F80BB
:1002900093827F9281A27F827EC080F0000E7FB029
:1002A000010E826F000E7FB2010E821919E01FB09D
:1002B00016D0640E956F72DF938081B006D0926B7A
:1002C000010E936FC9DF01C080F0938281B206D026
:1002D000926B020E936FC0DF01C080F01F8008D0C8
:1002E0001FA006D01F90926B936BB6DF01C080F009
:1002F00080C001F0ABEF03F0EACF9DF0E9CF9CF0B6
:100300009639F009986F9827E20F996F320F9B6F1B
:1003100096510F0B992799279B27E90F9A6F9A27D8
:100320009A2795390F0B9A279B279A379B379B1F44
:100330009B3795510F0B9B279837070E976F0A0E27
:100340009A079B27FDE399079A27FDE398079927CA
:10035000FDE397079827FDE3EA6A970EE96E070E1B
:100360009C159C9DE9269B0EE95CD8B49C8DEF50B2
:10037000006E08E19CBD06D09CB90CD09CB702D0A1
:10038000200E03D09C879C99300E002600509EA81A
:10039000FED7AD6EEE509CADE6D7DEEF01F0140E49
:1003A000956FFCDE92C095F0010E966F1FDF080E70
:1003B000E96E94C096F093C095F09ED70A0E9EA861
:1003C000FED7AD6E0D0E9EA8FED7AD6E42EF03F0C8
:1003D000A651A819800BAA6FA6AF05D0A51FA61F0E
:1003E000A52BD8B4A62BA8AF05D0A71FA81FA72B55
:1003F000D8B4A82BA551A703F3CF01F0F4CF00F098
:10040000A803F3500026A651A703F3500020026E64
:10041000AAAF05D0011E021E012AD8B4022A82EF1B
:1004200002F0A36BA16B0A0EA26FA06B9F6B9D5194
:100430009E1104E1000E016E026EE7D0A351A32BC2
:10044000036A9D25E96E9E510320EA6EEFCFA4F06A
:10045000A4512D080DE1010EA16FA351A32B036A36
:100460009D25E96E9E510320EA6EEFCFA4F00DD0DA
:10047000A4512B080AE1A351A32B036A9D25E96E21
:100480009E510320EA6EEFCFA4F0A4512F08D8B0FC
:10049000AED0A4513908D8A0AAD0A451300821E187
:1004A000036AA3519D25E96E9E510320EA6EEF5029
:1004B00078080AE0036AA3519D25E96E9E51032046
:1004C000EA6EEF5058080DE1100EA26FA32BA35156
:1004D000A32B036A9D25E96E9E510320EA6EEFCFA0
:1004E000A4F0A2510A0821E1A4512F081DE2A45151
:1004F00039081AE3A66B0A0EA56FA0C0A8F09FC02A
:10050000A7F066D7300EA45D01249F6F000E022075
:10051000A06FA351A32B036A9D25E96E9E51032072
:10052000EA6EEFCFA4F0E0D762D0A25110085FE1ED
:10053000A451600806E2A4517A0803E3A451DF0B3A
:1005400001D0A451A46FA4512F0803E2A45139088B
:1005500006E2A45140084BE2A451460848E3A451E6
:100560002F0819E2A451390816E39F35A56FA0356D
:10057000A66FA537A637A537A637A537A637F00E3D
:10058000A517300EA45DA525016E000EA62101C0A1
:100590009FF0A06F16D09F35A56FA035A66FA53729
:1005A000A637A537A637A537A637F00EA517410EF3
:1005B000A45D0A0FA525016E000EA62101C09FF0C3
:1005C000A06FA351A32B036A9D25E96E9E510320C2
:1005D000EA6EEFCFA4F0A451600806E2A4517A08B5
:1005E00003E3A451DF0B01D0A451A46FACD7A251F7
:1005F0000A0807E1A12D05D09F1FA01F9F2BD8B48B
:10060000A02B9FC001F0A0C002F035EF03F095C011
:1006100097F094C096F0266A2650040822E3036AF5
:100620002650980F016E000E032201C09DF003C0FA
:100630009EF0265096259F6F000E9721A06F020E08
:100640009F25016E000EA02101C0E9FFEA6EEFCFE9
:100650009FF09EC0EAFF9DC0E9FF9FC0EFFF262AE2
:10066000DBD79E6B980E9D6FDCD602506BEF03F0CC
:10067000926B050E936FF0DD926B80C094F07FC09B
:1006800093F08DD6010E816F81517E5C2FE381C086
:1006900092F0040E936FE0DDEA6A820EE96EE906DD
:1006A0009EAAFED7AECFECFF0D0EEF5CF9E1EC6A2F
:1006B000010E815D006ED89000360050036A5E0F17
:1006C000016E000E032201C092F003C093F0956BFF
:1006D000820E946F9CD793C0EAFF92C0E9FF02C0DC
:1006E000ECFFED5201C0EFFF812BCED75E0E016E05
:1006F000000E026EBAEF03F0F86AD09E078EFE0E6F
:10070000006E060E016E020EE96E000EEA6EEE6AD3
:10071000002EFDD7012EFBD7EA6AE96A610EAF6EA3
:10072000A60EAC6E900EAB6E20682168226823681E
:100730002468020E256E300E396E390E386E300E7A
:100740003B6E390E3A6EC180C182C184C1961CD500
:1007500023C07EF099D501C023F0232C01D003D013
:100760002350020833E125C07EF039C080F038C044
:100770007FF07ED702C03DF001C03CF0266A2550D4
:10078000265C24E2D8902634036A3E0F016E000EE8
:10079000032201C07EF003C07FF0D89026343C24B1
:1007A000016E000E3D2001C0E9FFEA6EECCF03F0C0
:1007B000ED52EFCF80F07FC0EAFF7EC0E9FF03C0BB
:1007C000ECFFED5280C0EFFF262AD9D7640E956F5B
:0A07D000E5DCBED7000E016E030049
:020000040030CA
:0E00000000220E0E000181000FC00FE00F4025
:00000001FF
;PIC18F252
;CRC=4753  CREATED="08-set-14 16:31"
