:0400000012EF04F007
:08000800046ED8CF05F0E0CF33
:1000100006F00001E9CF0CF0EACF07F0E1CF08F0DD
:10002000E2CF09F0D9CF0AF0DACF0BF0F3CF12F01C
:10003000F4CF13F0FACF14F0F5CF15F0F6CF16F099
:10004000F7CF17F000C00EF001C00FF002C010F0A3
:1000500003C011F09DAA30EF00F09EBAA2EF00F0AD
:100060000EC000F00FC001F010C002F011C003F08C
:100070000CC0E9FF07C0EAFF078E08C0E1FF09C016
:10008000E2FF0AC0D9FF0BC0DAFF12C0F3FF13C0B2
:10009000F4FF14C0FAFF15C0F5FF16C0F6FF17C035
:1000A000F7FF045006C0E0FF05C0D8FF1000496EFE
:1000B0006963696F204D65737472653A0A0D256432
:1000C000206573637261766F730A0D00496E696310
:1000D000696F204573637261766F3A0A0D456E64ED
:1000E000657265636F3A2025640A0D009DC09FF01C
:1000F0009CC09EF09FC003F09EC0E9FF9FC0EAFF36
:10010000EF521CE09FC003F09EC0E9FF9FC0EAFFD2
:10011000EF500A080FE1010E9E25016E000E9F218F
:10012000036E01C0E9FFEA6EEF500D0803E1010E16
:10013000016E06D09E2BD8B49F2BDCD7000E016E2B
:10014000BDEF00F02850282A036A290FE96E000E3F
:100150000320EA6E9EAAFED7AECFEFFF036A2850B7
:10016000290F016E000E032203C0EAFF01C0E9FF60
:10017000EF6A9D6B290E9C6FB9D71F9201B01F8249
:100180001FA203D0285201E0286A9E9A30EF00F0A7
:10019000926880CF7FF092688050F00B006E003A3A
:1001A0000F0E001600500F0B016E66EF01F09490D9
:1001B0008B9094928B92D6503B26D7503C22D76A94
:1001C000D66A69EF01F00900F6CF80F0F7CF81F031
:1001D000F5509EA8FED7AD6E80C0F6FF81C0F7FF38
:1001E0007F2EF1D712008951016A885D03E288C031
:1001F00000F00CD0006A080E8A6F883700368951EB
:10020000005CD8B0006E01368A2FF7D71200200E9E
:1002100080A9300E816F7FC000F07FAE08D0001E35
:10022000002A00C07FF02D0E816F808F80810150E9
:100230007FC088F0640E896FD6DF00C07FF0300E7B
:100240000124826F7FC088F00A0E896FCCDF300EE8
:100250000024846F300E0124836F81C000F0300EC3
:10026000825D04E0808380BF808512D081C082F0EF
:10027000200E816F300E835D04E0808180BF80831B
:1002800007D0D8A4808104E182C083F0200E826F61
:1002900080B505D080B307D080B109D00CD0815192
:1002A0009EA8FED7AD6E82519EA8FED7AD6E83513B
:1002B0009EA8FED7AD6E84519EA8FED7AD6E75EF99
:1002C00001F09D8AC00EF212236A62D701C026F0A7
:1002D0006ED7AE0EF66E000EF76E100E7F6E73DFE9
:1002E00026C07FF0180E806F92D7C00EF66E000EFB
:1002F000F76E0B0E7F6E67DF3FEF04F0EA6A860E43
:10030000E96EEF500EE0040E016E006A002EFED77B
:10031000012EFBD7DC0E006E002EFED70000EF2E64
:10032000F2D71200015086C088F0640E896F5BDF3F
:1003300000C086F00150300E07E187A30DD087B7CB
:100340000BD087B9200E03D0879787998781012624
:1003500001509EA8FED7AD6E86C088F00A0E896F48
:1003600042DF00C086F00150300E06E187B709D0A9
:1003700087A107D087B9200E012601509EA8FED77D
:10038000AD6E300E862786519EA8FED7AD6E120048
:10039000140E866FB3DF83C086F0010E876FC2DF55
:1003A00084C086F0010E876FBDDF0A0E9EA8FED7BF
:1003B000AD6E0D0E9EA8FED7AD6E84C001F012008A
:1003C0009380809181A080819382809381A2808399
:1003D0007FC081F0000E80B1010E836F000E80B3EC
:1003E000010E831919E01FB016D0640E866F86DFE8
:1003F000938081B006D0836B010E846FC9DF01C08A
:1004000081F0938281B206D0836B020E846FC0DFCD
:1004100001C081F01F8008D01FA006D01F90836B01
:10042000846BB6DF01C081F081C001F042EF04F0BF
:10043000EACF8EF0E9CF8DF08739F009896F8927EF
:10044000E20F8A6F320F8C6F87510F0B8A278A2732
:100450008C27E90F8B6F8B278B2786390F0B8B2708
:100460008C278B378C378C1F8C3786510F0B8C2742
:100470008937070E886F0A0E8B078C27FDE38A07E2
:100480008B27FDE389078A27FDE388078927FDE39A
:10049000EA6A880EE96E070E8D158D9DE9268C0E91
:1004A000E95CD8B48D8DEF50006E08E18DBD06D0AB
:1004B0008DB90CD08DB702D0200E03D08D878D99C9
:1004C000300E002600509EA8FED7AD6EEE508DADCA
:1004D000E6D77AEF02F0140E866F10DF83C086F045
:1004E000010E876F1FDF080EE96E85C087F084C09C
:1004F00086F09ED70A0E9EA8FED7AD6E0D0E9EA862
:10050000FED7AD6EDEEF03F097519919800B9B6F0C
:1005100097AF05D0961F971F962BD8B4972B99AFFE
:1005200005D0981F991F982BD8B4992B96519803F2
:10053000F3CF01F0F4CF00F09903F3500026975168
:100540009803F3500020026E9BAF05D0011E021EDF
:10055000012AD8B4022A1EEF03F0946B926B0A0EA4
:10056000936F916B906B8E518F1104E1000E016EB1
:10057000026EE7D09451942B036A8E25E96E8F5159
:100580000320EA6EEFCF95F095512D080DE1010E95
:10059000926F9451942B036A8E25E96E8F5103203C
:1005A000EA6EEFCF95F00DD095512B080AE19451EA
:1005B000942B036A8E25E96E8F510320EA6EEFCFEC
:1005C00095F095512F08D8B0AED095513908D8A0E4
:1005D000AAD09551300821E1036A94518E25E96E25
:1005E0008F510320EA6EEF5078080AE0036A9451B5
:1005F0008E25E96E8F510320EA6EEF5058080DE109
:10060000100E936F942B9451942B036A8E25E96EF0
:100610008F510320EA6EEFCF95F093510A0821E144
:1006200095512F081DE2955139081AE3976B0A0E70
:10063000966F91C099F090C098F066D7300E955D96
:100640000124906F000E0220916F9451942B036A45
:100650008E25E96E8F510320EA6EEFCF95F0E0D73B
:1006600062D0935110085FE19551600806E2955100
:100670007A0803E39551DF0B01D09551956F9551A1
:100680002F0803E29551390806E2955140084BE2E4
:100690009551460848E395512F0819E295513908BC
:1006A00016E39035966F9135976F96379737963753
:1006B000973796379737F00E9617300E955D96253B
:1006C000016E000E972101C090F0916F16D0903509
:1006D000966F9135976F9637973796379737963746
:1006E0009737F00E9617410E955D0A0F9625016E0D
:1006F000000E972101C090F0916F9451942B036AE2
:100700008E25E96E8F510320EA6EEFCF95F095515B
:10071000600806E295517A0803E39551DF0B01D09A
:100720009551956FACD793510A0807E1922D05D0EA
:10073000901F911F902BD8B4912B90C001F091C0C5
:1007400002F0D1EF03F086C088F085C087F0276AF9
:100750002750040822E3036A2750890F016E000E18
:10076000032201C08EF003C08FF027508725906FC1
:10077000000E8821916F020E9025016E000E9121CE
:1007800001C0E9FFEA6EEFCF90F08FC0EAFF8EC0A4
:10079000E9FF90C0EFFF272ADBD78F6B890E8E6FA2
:1007A000DCD6025001EF04F0836B050E846FF0DDA0
:1007B000836B81C085F080C084F08DD6010E826F7E
:1007C00082517F5C29E382C083F0040E846FE0DDF8
:1007D000280E866F93DD1FA2FED71F92010E825D49
:1007E000006ED89000360050036A5F0F016E000E55
:1007F000032201C083F003C084F0866B290E856F4D
:10080000A2D784C0EAFF83C0E9FF02C0ECFFED522B
:1008100001C0EFFF822BD4D75F0E016E000E026E77
:1008200051EF04F0F86AD09E078EFE0E006E060EA1
:10083000016E020EE96E000EEA6EEE6A002EFDD722
:10084000012EFBD7EA6AE96A610EAF6EA60EAC6EA6
:10085000900EAB6E206821682268236824682568A2
:10086000020E266E300E3A6E390E396E300E3C6E28
:10087000390E3B6EC180C182C184C19622D523C08E
:100880007FF09ED501C023F0232C01D003D023504C
:10089000020833E126C07FF03AC081F039C080F011
:1008A00083D702C03EF001C03DF0276A2650275C86
:1008B00024E2D8902734036A3F0F016E000E032212
:1008C00001C07FF003C080F0D89027343D24016E32
:1008D000000E3E2001C0E9FFEA6EECCF03F0ED52BE
:1008E000EFCF81F080C0EAFF7FC0E9FF03C0ECFFDB
:1008F000ED5281C0EFFF272AD9D7640E866FFEDC48
:08090000BED7000E016E0300DA
:020000040030CA
:0E00000000220E0E000181000FC00FE00F4025
:00000001FF
;PIC18F252
;CRC=C65B  CREATED="15-set-14 16:00"
