:0400000027EF01F0F5
:08000800046ED8CF05F0E0CF33
:1000100006F00001E9CF0CF0EACF07F0E1CF08F0DD
:10002000E2CF09F0D9CF0AF0DACF0BF0F3CF12F01C
:10003000F4CF13F0FACF14F0F5CF15F0F6CF16F099
:10004000F7CF17F000C00EF001C00FF002C010F0A3
:1000500003C011F09DA230EF00F09EB27FEF00F0E0
:100060009DAA36EF00F09EBA5DEF00F00EC000F0E2
:100070000FC001F010C002F011C003F00CC0E9FF86
:1000800007C0EAFF078E08C0E1FF09C0E2FF0AC00F
:10009000D9FF0BC0DAFF12C0F3FF13C0F4FF14C086
:1000A000FAFF15C0F5FF16C0F6FF17C0F7FF0450A2
:1000B00006C0E0FF05C0D8FF100001011951192B3F
:1000C000036A190FE96E000E0320EA6E9EAAFED79E
:1000D000AECFEFFF036A1951190FE96E000E03202E
:1000E000EA6EEF6ACC6A1CA306D01C93000E0609C8
:1000F000CA6EFF0ECB6E9E9A000136EF00F09E9204
:10010000000ECA6EFF0ECB6ECC6A01011C819E925E
:10011000000136EF00F0010EEA6E2D0EE96EEF5091
:100120000EE0040E016E006A002EFED7012EFBD7F2
:10013000DC0E006E002EFED70000EF2EF2D712006C
:10014000938001012B9181A02B8193822B9381A21B
:100150002B832C69000E2BB1010E2E6F000E2BB3DA
:10016000010E2E1914E0640E2D6F0001D4DF938070
:1001700081B004D0080E01012C6F0001938281B27E
:1001800003D0090E01012C6F01011C8706D01CB59C
:1001900004D01CA702D01C971C852CC101F00001C3
:1001A00074EF01F001012E51016A2D5D03E22DC1B2
:1001B00000F00CD0006A080E2F6F2D3700362E513C
:1001C000005CD8B0006E01362F2FF7D70001120067
:1001D00001502BC12DF1640E01012E6F0001E2DFF1
:1001E00000C02BF10150300E08E101012CA30ED00C
:1001F0002CB70CD02CB9200E04D001012C972C99CF
:100200002C81012601509EA8FED7AD6E2BC12DF189
:100210000A0E2E6F0001C6DF00C02BF10150300E18
:1002200008E101012CB70BD02CA109D02CB9200E6C
:100230000001012601509EA8FED7AD6E0101300ECF
:100240002B272B519EA8FED7AD6E00011200F86A35
:10025000D09E078EFE0E006E060E016E020EE96E37
:10026000000EEA6EEE6A002EFDD7012EFBD7EA6A79
:10027000E96A610EAF6EA60EAC6E900EAB6E010118
:10028000196B1A6B010E1B6F1C911C831C851C972C
:10029000C180C182C184C1969E92CC6A000ECA6E92
:1002A000FF0ECB6E9D8A9D82C00EF2121CA11AD049
:1002B0001C91300E195C296F300E1A5C2A6F29517F
:1002C000030DF3502C6B2B6F1D0E2B25E96E010EC9
:1002D0002C21EA6E29C1EFFF1F6B2AC11EF1196A9A
:1002E000196B1C8300012CD70150080A03E0010A96
:1002F00010E01ED01BC12BF11B0E01012C6F000161
:1003000067DF010E01012B6F1B0E2C6F000160DFF8
:100310001FD01BC12BF11B0E01012C6F000158DFF8
:10032000020E01012B6F1B0E2C6F000151DF10D04C
:1003300001011CA50ED01C951BC12BF11B0E2C6FAF
:10034000000146DF01012B6B1B0E2C6F000140DF0B
:100350000101640E2D6F0001DEDE0101A7D7000E42
:04036000016E030027
:020000040030CA
:0E00000000220E0E000181000FC00FE00F4025
:00000001FF
;PIC18F252
;CRC=A97B  CREATED="18-ago-14 12:06"
