:100000004EEF02F0EA6A5A0EE96EEF500EE0040E6F
:10001000016E006A002EFED7012EFBD7DC0E006EAB
:10002000002EFED70000EF2EF2D712005D50016ABD
:100030005C5C03E25CC000F00CD0006A080E5E6EEF
:100040005C3600365D50005CD8B0006E01365E2E26
:10005000F7D7120001505AC05CF0640E5D6EE6DF07
:1000600000C05AF00150300E07E15BA20DD05BB624
:100070000BD05BB8200E03D05B965B985B800126AB
:1000800001509EA8FED7AD6E5AC05CF00A0E5D6EA0
:10009000CDDF00C05AF00150300E06E15BB609D04A
:1000A0005BA007D05BB8200E012601509EA8FED7AA
:1000B000AD6E300E5A265A509EA8FED7AD6E120075
:1000C000140E5A6E9FDF58C05AF0010E5B6EC2DFED
:1000D00059C05AF0010E5B6EBDDF0A0E9EA8FED716
:1000E000AD6E0D0E9EA8FED7AD6E59C001F0120088
:1000F0009380449081A044809382449281A2448260
:100100004568000E44B0010E476E000E44B2010E69
:10011000471819E00AB016D0640E5A6E73DF938048
:1001200081B006D0586A010E596ECADF01C045F091
:10013000938281B206D0586A020E596EC1DF01C0A7
:1001400045F00A8008D00AA006D00A90586A596A79
:10015000B7DF01C045F045C001F06EEF02F06C5012
:100160006E18800B706E6CAE05D06B1E6C1E6B2A09
:10017000D8B46C2A6EAE05D06D1E6E1E6D2AD8B432
:100180006E2A6B506D02F3CF01F0F4CF00F06E02D7
:10019000F35000266C506D02F3500020026E70AEDA
:1001A00005D0011E021E012AD8B4022A49EF01F02F
:1001B000696A676A0A0E686E666A656A63506410E7
:1001C00004E1000E016E026EE7D06950692A036AED
:1001D0006324E96E64500320EA6EEFCF6AF06A5040
:1001E0002D080DE1010E676E6950692A036A6324C8
:1001F000E96E64500320EA6EEFCF6AF00DD06A50CA
:100200002B080AE16950692A036A6324E96E645085
:100210000320EA6EEFCF6AF06A502F08D8B0AED054
:100220006A503908D8A0AAD06A50300821E1036A80
:1002300069506324E96E64500320EA6EEF50780839
:100240000AE0036A69506324E96E64500320EA6E91
:10025000EF5058080DE1100E686E692A6950692A3E
:10026000036A6324E96E64500320EA6EEFCF6AF0FC
:1002700068500A0821E16A502F081DE26A503908C7
:100280001AE36C6A0A0E6B6E66C06EF065C06DF0A4
:1002900066D7300E6A5C0124656E000E0220666E21
:1002A0006950692A036A6324E96E64500320EA6E88
:1002B000EFCF6AF0E0D762D0685010085FE16A5073
:1002C000600806E26A507A0803E36A50DF0B01D047
:1002D0006A506A6E6A502F0803E26A50390806E2D3
:1002E0006A5040084BE26A50460848E36A502F08BB
:1002F00019E26A50390816E365346B6E66346C6E29
:100300006B366C366B366C366B366C36F00E6B16A5
:10031000300E6A5C6B24016E000E6C2001C065F02B
:10032000666E16D065346B6E66346C6E6B366C36EA
:100330006B366C366B366C36F00E6B16410E6A5CA3
:100340000A0F6B24016E000E6C2001C065F0666E12
:100350006950692A036A6324E96E64500320EA6ED7
:10036000EFCF6AF06A50600806E26A507A0803E349
:100370006A50DF0B01D06A506A6EACD768500A0829
:1003800007E1672C05D0651E661E652AD8B4662A6B
:1003900065C001F066C002F008EF02F05BC05DF0DE
:1003A0005AC05CF0020E5C24016E000E5D2001C09C
:1003B000E9FFEA6EEFCF5EF0030E5C24016E000EE3
:1003C0005D2001C0E9FFEA6EEFCF5FF0040E5C2410
:1003D000016E000E5D2001C0E9FFEA6EEFCF60F014
:1003E000050E5C24016E000E5D2001C0E9FFEA6E7F
:1003F000EFCF61F0060E5C24016E000E5D2001C09F
:10040000E9FFEA6EEFCF62F0646A5E0E636ED0D6EB
:1004100002503DEF02F0140E5A6EF4DD586A050EDC
:10042000596E4EDE586A45C059F04ADE476A44505C
:10043000475C2EE2140E5A6EE5DD47C058F0040EFC
:10044000596E3EDEEA6A480EE96EE9069EAAFED7BC
:10045000AECFECFF0D0EEF5CF9E1EC6AD8904734BB
:10046000036A240F016E000E032201C058F003C07E
:1004700059F05B6A480E5A6E91D759C0EAFF58C0CE
:10048000E9FF02C0ECFFED5201C0EFFF472ACFD7D2
:10049000240E016E000E026E7DEF02F0F86AD09E0F
:1004A000FE0E006E060E016E020EE96E000EEA6E82
:1004B000EE6A002EFDD7012EFBD7EA6AE96A610ECB
:1004C000AF6EA60EAC6E900EAB6E010E0C6E0E688B
:1004D0000F68C180C182C184C1960AD601C00BF0E9
:1004E0000B2C01D003D00B5002080BE10CC044F0E0
:1004F00021C046F020C045F08ED702C023F001C0D5
:1005000022F0640E5A6E7EDDE8D7000E016E030005
:020000040030CA
:0E00000000220E0E000181000FC00FE00F4025
:00000001FF
;PIC18F252
;CRC=B880  CREATED="22-ago-14 14:30"
