:10000000BFEF02F0EA6A7B0EE96EEF500EE0040EDD
:10001000016E006A002EFED7012EFBD7DC0E006EAB
:10002000002EFED70000EF2EF2D712007E50016A9C
:100030007D5C03E27DC000F00CD0006A080E7F6E8C
:100040007D3600367E50005CD8B0006E01367F2EC3
:10005000F7D7120001507BC07DF0640E7E6EE6DFA4
:1000600000C07BF00150300E07E17CA20DD07CB6C1
:100070000BD07CB8200E03D07C967C987C80012627
:1000800001509EA8FED7AD6E7BC07DF00A0E7E6E3D
:10009000CDDF00C07BF00150300E06E17CB609D008
:1000A0007CA007D07CB8200E012601509EA8FED768
:1000B000AD6E300E7B267B509EA8FED7AD6E120033
:1000C000140E7B6E9FDF78C07BF0010E7C6EC2DF6A
:1000D00079C07BF0010E7C6EBDDF0A0E9EA8FED7B4
:1000E000AD6E0D0E9EA8FED7AD6E79C001F0120068
:1000F0009380659081A065809382659281A26582DC
:1001000064C066F0000E65B0010E686E000E65B248
:10011000010E681819E00AB016D0640E7B6E72DF0B
:10012000938081B006D0786A010E796EC9DF01C074
:1001300066F0938281B206D0786A020E796EC0DFD3
:1001400001C066F00A8008D00AA006D00A90786A3A
:10015000796AB6DF01C066F066C001F0E5EF02F033
:10016000EACF83F0E9CF82F07C38F0097E6E7E26FC
:10017000E20F7F6E320F816F7C500F0B7F267F2640
:100180008127E90F806F802780277B380F0B80271E
:10019000812780378137811F81377B500F0B812763
:1001A0007E36070E7D6E0A0E80078127FDE37F06EF
:1001B0008027FDE37E067F26FDE37D067E26FDE3A8
:1001C000EA6A7D0EE96E070E8215829DE926810E90
:1001D000E95CD8B4828DEF50006E08E182BD06D094
:1001E00082B90CD082B702D0200E03D082878299C8
:1001F000300E002600509EA8FED7AD6EEE5082ADA8
:10020000E6D712EF01F0140E7B6EFCDE78C07BF0B7
:10021000010E7C6E1FDF080EE96E7AC07CF079C09B
:100220007BF09ED70A0E9EA8FED7AD6E0D0E9EA83F
:10023000FED7AD6E82EF02F08C518E19800B906F5D
:100240008CAF05D08B1F8C1F8B2BD8B48C2B8EAF13
:1002500005D08D1F8E1F8D2BD8B48E2B8B518D0307
:10026000F3CF01F0F4CF00F08E03F35000268C5151
:100270008D03F3500020026E90AF05D0011E021EC8
:10028000012AD8B4022AB6EF01F0896B876B0A0EF7
:10029000886F866B856B8351841104E1000E016EBB
:1002A000026EE7D08951892B036A8325E96E845158
:1002B0000320EA6EEFCF8AF08A512D080DE1010E7E
:1002C000876F8951892B036A8325E96E8451032046
:1002D000EA6EEFCF8AF00DD08A512B080AE18951DE
:1002E000892B036A8325E96E84510320EA6EEFCFE0
:1002F0008AF08A512F08D8B0AED08A513908D8A0D8
:10030000AAD08A51300821E1036A89518325E96E18
:1003100084510320EA6EEF5078080AE0036A89519D
:100320008325E96E84510320EA6EEF5058080DE1F1
:10033000100E886F892B8951892B036A8325E96EFA
:1003400084510320EA6EEFCF8AF088510A0821E138
:100350008A512F081DE28A5139081AE38C6B0A0E64
:100360008B6F86C08EF085C08DF066D7300E8A5DAB
:100370000124856F000E0220866F8951892B036A44
:100380008325E96E84510320EA6EEFCF8AF0E0D72F
:1003900062D0885110085FE18A51600806E28A51F4
:1003A0007A0803E38A51DF0B01D08A518A6F8A51A0
:1003B0002F0803E28A51390806E28A5140084BE2CD
:1003C0008A51460848E38A512F0819E28A513908B0
:1003D00016E385358B6F86358C6F8B378C378B3773
:1003E0008C378B378C37F00E8B17300E8A5D8B2550
:1003F000016E000E8C2101C085F0866F16D0853508
:100400008B6F86358C6F8B378C378B378C378B3770
:100410008C37F00E8B17410E8A5D0A0F8B25016E0B
:10042000000E8C2101C085F0866F8951892B036AEB
:100430008325E96E84510320EA6EEFCF8AF08A515A
:10044000600806E28A517A0803E38A51DF0B01D083
:100450008A518A6FACD788510A0807E1872D05D0E9
:10046000851F861F852BD8B4862B85C001F086C0DA
:1004700002F075EF02F07BC07DF07AC07CF0020ED6
:100480007C24016E000E7D2001C0E9FFEA6EEFCFF3
:100490007EF0030E7C24016E000E7D2001C0E9FF7A
:1004A000EA6EEFCF7FF0040E7C24016E000E7D20FB
:1004B00001C0E9FFEA6EEFCF80F0050E7C24016EEB
:1004C000000E7D2001C0E9FFEA6EEFCF81F0060E3D
:1004D0007C24016E000E7D2001C0E9FFEA6EEFCFA3
:1004E00082F0846B7E0E836FD0D60250AEEF02F0A6
:1004F000786A050E796EE4DD786A66C07AF065C0C8
:1005000079F081D6010E676E6750645C32E3140E99
:100510007B6E78DD67C078F0040E796ED1DDEA6A13
:10052000680EE96EE9069EAAFED7AECFECFF0D0E6F
:10053000EF5CF9E1EC6A010E675C006ED890003662
:100540000050036A440F016E000E032201C078F0D0
:1005500003C079F07B6A680E7A6E8DD779C0EAFFA6
:1005600078C0E9FF02C0ECFFED5201C0EFFF672A3F
:10057000CBD7440E016E000E026EF4EF02F0F86A63
:10058000D09EFE0E006E060E016E020EE96E000E8B
:10059000EA6EEE6A002EFDD7012EFBD7EA6AE96A01
:1005A000610EAF6EA60EAC6E900EAB6E020E0C6EB0
:1005B0000E680F68D40E216E310E206EC180C1828C
:1005C000C184C1960BC064F093D501C00BF00B2C15
:1005D00001D003D00B50020833E10CC064F021C0FD
:1005E00066F020C065F084D702C023F001C022F07D
:1005F0000D6A0C500D5C24E2D8900D34036A240F70
:10060000016E000E032201C064F003C065F0D890B3
:100610000D342224016E000E232001C0E9FFEA6E92
:10062000ECCF03F0ED52EFCF66F065C0EAFF64C097
:10063000E9FF03C0ECFFED5266C0EFFF0D2AD9D7EA
:0E064000640E7B6EDFDCBED7000E016E030081
:020000040030CA
:0E00000000220E0E000181000FC00FE00F4025
:00000001FF
;PIC18F252
;CRC=260E  CREATED="22-ago-14 15:44"
