:040000004CEF02F0CF
:08000800046ED8CF05F0E0CF33
:1000100006F00001E9CF0CF0EACF07F0E1CF08F0DD
:10002000E2CF09F0D9CF0AF0DACF0BF0F3CF12F01C
:10003000F4CF13F0FACF14F0F5CF15F0F6CF16F099
:10004000F7CF17F000C00EF001C00FF002C010F0A3
:1000500003C011F09DA230EF00F09EB27FEF00F0E0
:100060009DAA36EF00F09EBA5DEF00F00EC000F0E2
:100070000FC001F010C002F011C003F00CC0E9FF86
:1000800007C0EAFF078E08C0E1FF09C0E2FF0AC00F
:10009000D9FF0BC0DAFF12C0F3FF13C0F4FF14C086
:1000A000FAFF15C0F5FF16C0F6FF17C0F7FF0450A2
:1000B00006C0E0FF05C0D8FF100001011F511F2B33
:1000C000036A1F0FE96E000E0320EA6E9EAAFED798
:1000D000AECFEFFF036A1F511F0FE96E000E032022
:1000E000EA6EEF6ACC6A22A306D02293000E0609BC
:1000F000CA6EFF0ECB6E9E9A000136EF00F09E9204
:10010000000ECA6EFF0ECB6ECC6A010122819E9258
:10011000000136EF00F0010162516419800B666F37
:1001200062AF05D0611F621F612BD8B4622B64AF30
:1001300005D0631F641F632BD8B4642B6151630324
:10014000F3CF01F0F4CF00F06403F35000266251C6
:100150006303F3500020026E66AF05D0011E021E3D
:10016000012AD8B4022A000129EF01F001015F6BD6
:100170005D6B0A0E5E6F5C6B5B6B59515A1104E14B
:10018000000E016E026EE9D05F515F2B036A5925A4
:10019000E96E5A510320EA6EEFCF60F160512D08ED
:1001A0000DE1010E5D6F5F515F2B036A5925E96E0A
:1001B0005A510320EA6EEFCF60F10DD060512B0849
:1001C0000AE15F515F2B036A5925E96E5A510320FA
:1001D000EA6EEFCF60F160512F08D8B0B0D0605117
:1001E0003908D8A0ACD06051300821E1036A5F51D2
:1001F0005925E96E5A510320EA6EEF5078080AE05B
:10020000036A5F515925E96E5A510320EA6EEF5097
:1002100058080DE1100E5E6F5F2B5F515F2B036A74
:100220005925E96E5A510320EA6EEFCF60F15E5115
:100230000A0823E160512F081FE2605139081CE3CE
:10024000626B0A0E616F5CC164F15BC163F1000116
:1002500062D7300E0101605D01245B6F000E022049
:100260005C6F5F515F2B036A5925E96E5A51032079
:10027000EA6EEFCF60F1DED762D05E5110085FE129
:100280006051600806E260517A0803E36051DF0BB9
:1002900001D06051606F60512F0803E2605139084E
:1002A00006E2605140084BE26051460848E3605165
:1002B0002F0819E26051390816E35B35616F5C3530
:1002C000626F613762376137623761376237F00ECC
:1002D0006117300E605D6125016E000E622101C064
:1002E0005BF15C6F16D05B35616F5C35626F6137B7
:1002F00062376137623761376237F00E6117410E3E
:10030000605D0A0F6125016E000E622101C05BF184
:100310005C6F5F515F2B036A5925E96E5A510320C8
:10032000EA6EEFCF60F16051600806E260517A0832
:1003300003E36051DF0B01D06051606FACD75E51B9
:100340000A0807E15D2D05D05B1F5C1F5B2BD8B44D
:100350005C2B5BC101F05CC102F00001A6EF02F072
:10036000010EEA6E5B0EE96EEF500EE0040E016EB8
:10037000006A002EFED7012EFBD7DC0E006E002E89
:10038000FED70000EF2EF2D71200938001015991A1
:1003900081A059819382599381A259835A69000E91
:1003A00059B1010E5C6F000E59B3010E5C1914E0D7
:1003B000640E5B6F0001D4DF938081B004D0080E1F
:1003C00001015A6F0001938281B203D0090E01012D
:1003D0005A6F0101228706D022B504D022A702D08D
:1003E000229722855AC101F00001B0EF02F001010D
:1003F0005C51016A5B5D03E25BC100F00CD0006AF6
:10040000080E5D6F5B3700365C51005CD8B0006E43
:1004100001365D2FF7D700011200015059C15BF181
:10042000640E01015C6F0001E2DF00C059F1015070
:10043000300E08E101015AA30ED05AB70CD05AB9B8
:10044000200E04D001015A975A995A810126015071
:100450009EA8FED7AD6E59C15BF10A0E5C6F00011C
:10046000C6DF00C059F10150300E08E101015AB752
:100470000BD05AA109D05AB9200E00010126015013
:100480009EA8FED7AD6E0101300E592759519EA886
:10049000FED7AD6E00011200F86AD09E078EFE0EE8
:1004A000006E060E016E020EE96E000EEA6EEE6A36
:1004B000002EFDD7012EFBD7EA6AE96A610EAF6E06
:1004C000A60EAC6E900EAB6E01011F6B206B020E80
:1004D000216F2291228322852297C180C182C1840B
:1004E000C1969E92CC6A000ECA6EFF0ECB6E9D8A9C
:1004F0009D82C00EF21222A131D02291300E1F5CDB
:10050000566F010E236F1F51235D1AE2010E235D0A
:10051000036A240F016E010E032203C05AF1036A1D
:1005200023511F0FE96E000E0320EA6EEFCF5BF13F
:100530005AC1EAFF01C0E9FF5BC1EFFF232BE3D7FC
:10054000010E5A6F240E596F000110D602C058F1E7
:1005500001C057F11F6A01011F6B2283000115D7EB
:100560000150080A03E0010A10E01ED021C159F130
:100570001B0E01015A6F000150DF010E0101596F7E
:100580001B0E5A6F000149DF1FD021C159F11B0E0C
:1005900001015A6F000141DF020E0101596F1B0E6C
:1005A0005A6F00013ADF10D0010122A50ED022952A
:1005B00021C159F11B0E5A6F00012FDF0101596B48
:1005C0001B0E5A6F000129DF0101640E5B6F0001F1
:0C05D000C7DE010190D7000E016E030091
:020000040030CA
:0E00000000220E0E000181000FC00FE00F4025
:00000001FF
;PIC18F252
;CRC=9034  CREATED="18-ago-14 16:19"
