:04000000F8EF03F022
:08000800046ED8CF05F0E0CF33
:1000100006F00001E9CF0CF0EACF07F0E1CF08F0DD
:10002000E2CF09F0D9CF0AF0DACF0BF0F3CF12F01C
:10003000F4CF13F0FACF14F0F5CF15F0F6CF16F099
:10004000F7CF17F000C00EF001C00FF002C010F0A3
:1000500003C011F09DA230EF00F09EB27DEF00F0E2
:100060009DAA36EF00F09EBA5DEF00F00EC000F0E2
:100070000FC001F010C002F011C003F00CC0E9FF86
:1000800007C0EAFF078E08C0E1FF09C0E2FF0AC00F
:10009000D9FF0BC0DAFF12C0F3FF13C0F4FF14C086
:1000A000FAFF15C0F5FF16C0F6FF17C0F7FF0450A2
:1000B00006C0E0FF05C0D8FF10009F519F2B036AC8
:1000C0001F0FE96E000E0320EA6E9EAAFED7AECF88
:1000D000EFFF036A9F511F0FE96E000E0320EA6EC7
:1000E000EF6ACC6AA2A306D0A293000E0609CA6EDC
:1000F000FF0ECB6E9E9A36EF00F09E92000ECA6EF7
:10010000FF0ECB6ECC6AA2819E9236EF00F0EA6AB7
:10011000C70EE96EEF500EE0040E016E006A002E6D
:10012000FED7012EFBD7DC0E006E002EFED700009E
:10013000EF2EF2D712009380C59181A0C5819382E2
:10014000C59381A2C583C669000EC5B1010EC86FF3
:10015000000EC5B3010EC81911E0A2B70ED0640E8F
:10016000C76FD5DF938081B002D0080EC66F93822F
:1001700081B202D0090EC66FA28704D0A2A702D016
:10018000A297C66BC6C001F02CEF04F0CA51016AF9
:10019000C95D03E2C9C000F00CD0006A080ECB6F45
:1001A000C9370036CA51005CD8B0006E0136CB2F7B
:1001B000F7D712000150C7C0C9F0640ECA6FE6DF5E
:1001C00000C0C7F00150300E07E1C8A30DD0C8B77A
:1001D0000BD0C8B9200E03D0C897C899C881012692
:1001E00001509EA8FED7AD6EC7C0C9F00A0ECA6FF7
:1001F000CDDF00C0C7F00150300E06E1C8B709D00E
:10020000C8A107D0C8B9200E012601509EA8FED76C
:10021000AD6E300EC727C7519EA8FED7AD6E120037
:10022000C66BC5531AE0010EC66FC651A35D14E339
:100230000A0E9EA8FED7AD6E0D0E9EA8FED7AD6E1F
:10024000C6C0C7F0010EC86FB5DFC5C0C7F0010E4C
:10025000C86FB0DFC62BE9D711D00A0E9EA8FED713
:10026000AD6E0D0E9EA8FED7AD6EC76B010EC86FAA
:10027000A1DFC5C0C7F0010EC86F9CDF1200006A85
:10028000016AD451D890D5B1002600320132D5B3DD
:10029000002600320132D5B5002600320132D5B732
:1002A000002600320132D5B9002600320132D5BB1A
:1002B000002600320132D5BD002600320132D5BF02
:1002C000002600320132D1EF01F0D26BD06B0A0E62
:1002D000D16FCF6BCD51CE1103E1000E016EC1D0B5
:1002E000D251D22B036ACD25E96ECE510320EA6E9E
:1002F000EFCFD3F0D3512D080DE1010ED06FD251C5
:10030000D22B036ACD25E96ECE510320EA6EEFCFE2
:10031000D3F00DD0D3512B080AE1D251D22B036A6E
:10032000CD25E96ECE510320EA6EEFCFD3F0D35145
:100330002F08D8B08ED0D3513908D8A08AD0D35145
:10034000300821E1036AD251CD25E96ECE51032058
:10035000EA6EEF5078080AE0036AD251CD25E96EC3
:10036000CE510320EA6EEF5058080DE1100ED16F08
:10037000D22BD251D22B036ACD25E96ECE51032068
:10038000EA6EEFCFD3F0D1510A081BE1D3512F0809
:1003900017E2D351390814E30A0ED46FCFC0D5F059
:1003A0006ED7300ED35D0124CF6FD251D22B036AAA
:1003B000CD25E96ECE510320EA6EEFCFD3F0E6D71C
:1003C00048D0D151100845E1D351600806E2D3511D
:1003D0007A0803E3D351DF0B01D0D351D36FD3514C
:1003E0002F0803E2D351390806E2D351400831E225
:1003F000D35146082EE3D3512F080CE2D3513908CC
:1004000009E3CF39D46FF00ED417300ED35DD42565
:10041000CF6F09D0CF39D46FF00ED417410ED35D12
:100420000A0FD425CF6FD251D22B036ACD25E96EA6
:10043000CE510320EA6EEFCFD3F0D351600806E22D
:10044000D3517A0803E3D351DF0B01D0D351D36FDB
:10045000C6D7D02D04D0D1510A0801E1CF6DCFC04D
:1004600001F05CEF02F0C869C7C0CCF0C6C0CBF0A9
:10047000CCC003F0CBC0E9FFCCC0EAFFEF5204E0F0
:10048000CB2BD8B4CC2BF4D7040ECB5D006E000E72
:10049000CC5900C0E9FFEA6EEFCFC9F0030ECB5D87
:1004A000006E000ECC5900C0E9FFEA6EEFCFCAF033
:1004B000CE6BC90ECD6F09D701C0C8F0C8C001F01E
:1004C000D7EF03F0E651E819800BEA6FE6AF05D0ED
:1004D000E51FE61FE52BD8B4E62BE8AF05D0E71FF4
:1004E000E81FE72BD8B4E82BE551E703F3CF01F081
:1004F000F4CF00F0E803F3500026E651E703F35091
:100500000020026EEAAF05D0011E021E012AD8B4F7
:10051000022AFCEF02F0E36BE16B0A0EE26FE06B84
:10052000DF6BDD51DE1104E1000E016E026EE7D0DB
:10053000E351E32B036ADD25E96EDE510320EA6E09
:10054000EFCFE4F0E4512D080DE1010EE16FE3512E
:10055000E32B036ADD25E96EDE510320EA6EEFCF5F
:10056000E4F00DD0E4512B080AE1E351E32B036AD8
:10057000DD25E96EDE510320EA6EEFCFE4F0E451B1
:100580002F08D8B0AED0E4513908D8A0AAD0E45191
:10059000300821E1036AE351DD25E96EDE510320D5
:1005A000EA6EEF5078080AE0036AE351DD25E96E50
:1005B000DE510320EA6EEF5058080DE1100EE26F95
:1005C000E32BE351E32B036ADD25E96EDE510320C3
:1005D000EA6EEFCFE4F0E2510A0821E1E4512F087E
:1005E0001DE2E45139081AE3E66B0A0EE56FE0C03C
:1005F000E8F0DFC0E7F066D7300EE45D0124DF6F7E
:10060000000E0220E06FE351E32B036ADD25E96E63
:10061000DE510320EA6EEFCFE4F0E0D762D0E25182
:1006200010085FE1E451600806E2E4517A0803E350
:10063000E451DF0B01D0E451E46FE4512F0803E2F1
:10064000E451390806E2E45140084BE2E45146081F
:1006500048E3E4512F0819E2E451390816E3DF3585
:10066000E56FE035E66FE537E637E537E637E5373E
:10067000E637F00EE517300EE45DE525016E000E5D
:10068000E62101C0DFF0E06F16D0DF35E56FE03521
:10069000E66FE537E637E537E637E537E637F00E5C
:1006A000E517410EE45D0A0FE525016E000EE62117
:1006B00001C0DFF0E06FE351E32B036ADD25E96E53
:1006C000DE510320EA6EEFCFE4F0E451600806E269
:1006D000E4517A0803E3E451DF0B01D0E451E46F05
:1006E000ACD7E2510A0807E1E12D05D0DF1FE01F7A
:1006F000DF2BD8B4E02BDFC001F0E0C002F0ACEF9C
:1007000003F0CB69CA69DC6B010EDC6F9F51DC5DC5
:100710001FE2010EDC5D036ACC0F016E000E0322A6
:1007200003C0DEF0036ADC51C825E96EC95103201D
:10073000EA6EEF50036AE96E03C0EAFFEFCFDFF025
:10074000DEC0EAFF01C0E9FFDFC0EFFFDC2BDED730
:10075000DE6BCC0EDD6FDFD602C0CBF001C0CAF07D
:10076000CAC001F0CBC002F0E8EF03F0C56B010E88
:10077000C56FC551A35D3AE30A0E9EA8FED7AD6EC4
:100780000D0E9EA8FED7AD6EC5C0C7F0010EC86F96
:1007900011DD030EC76F010EC86F0CDDA2A1FED7DD
:1007A000A2A122D0A291C76B1F0EC66F5CD601C05A
:1007B000A1F0D890A135036AA50F016E000E0322A7
:1007C00001C0C6F003C0C7F0C96B1F0EC86F99D730
:1007D000C7C0EAFFC6C0E9FF02C0ECFFED5201C08E
:1007E000EFFF1F6A9F6BA283C52BC3D744EF04F0B2
:1007F000F86AD09E078EFE0E006E060E016E020E87
:10080000E96E000EEA6EEE6A002EFDD7012EFBD7D0
:10081000EA6AE96A610EAF6EA60EAC6E900EAB6E20
:100820009F6B010EA06F0A0EA16FA291A283010E11
:10083000A36FA46BA285A297A299C180C182C18433
:10084000C1969E92CC6A000ECA6EFF0ECB6E9D8A38
:100850009D82C00EF2126FD40150080A05E0010A11
:1008600008E0090A0BE00DD0010EC56FD9DCA289A2
:1008700008D0020EC56FD4DCA28903D0C56BD0DCD2
:10088000A299A2A901D072D7640EC76F40DCE3D74A
:06089000000E016E0300E2
:020000040030CA
:0E00000000220E0E000181000FC00FE00F4025
:00000001FF
;PIC18F252
;CRC=6E63  CREATED="20-ago-14 15:26"
