:1000000000308A00A4280000FF00030E8301A10035
:100010007F08A0000A08A7008A01A00E0408A20019
:100020007708A3007808A4007908A5007A08A6003C
:10003000831383128C308400001C20280C1848285D
:100040008B1E24280B193528220884002308F7006A
:100050002408F8002508F9002608FA0027088A0075
:10006000210E8300FF0E7F0E09000B11281D3C2876
:10007000A90A0319AA0A402829080319AA03A903EF
:10008000831606100130831286060B118A1124286C
:100090000C10A81D4F28AB0A0319AC0A53282B08D3
:1000A0000319AC03AB038316861002308312860655
:1000B0000C108A1124288316051483122D10051C98
:1000C0002D14831685148312AD10851CAD14831670
:1000D000051583122D11051D2D1583168515831207
:1000E000AD11851DAD1500302D180130AF00003069
:1000F000AD1801302F0603198528281C84282810E4
:1001000028112D1828158B168928281889282814B5
:100110008B1200302D190130AF000030AD190130C5
:100120002F0603199D28A81C9C28A810A8112D197A
:10013000A81583160C148312A328A818A328A814A2
:1001400083160C108312BE28840183131F3083058D
:10015000831606118312061507309F00810183164E
:100160000108C0390738810083128F018E01953054
:1001700090000B110C10C0308B045B28BD280030A0
:04018000F800630020
:02400E00623F0F
:00000001FF
;PIC16F628A
;CRC=0C1E  CREATED="15-set-14 16:00"
