:1000000000308A00D3280000FF00030E8301A10006
:100010007F08A0000A08A7008A01A00E0408A20019
:100020007708A3007808A4007908A5007A08A6003C
:10003000831383128C308400001C20280C18542851
:100040008B1E24280B194128220884002308F7005E
:100050002408F8002508F9002608FA0027088A0075
:10006000210E8300FF0E7F0E09000A108A100A116C
:100070008207483465346C346C346F340A340D3480
:1000800000340B11281D4828A90A0319AA0A4C2874
:1000900029080319AA03A903831606100130831245
:1000A00086060B118A1124280C10A81D5B28AB0AA8
:1000B0000319AC0A5F282B080319AC03AB038316A2
:1000C00086100230831286060C108A1124288316AB
:1000D0000611831206110830F8006E280000F81788
:1000E0007F28F813AE0C03180615031C06117817A9
:1000F0007F287813F80B72287D28000006158430BD
:100100008400840B812884280000F81B7128781B48
:100110007928F3288316051483122D10051C2D143D
:10012000831685148312AD10851CAD148316051536
:1001300083122D11051D2D15831685158312AD1102
:10014000851DAD1500302D180130AF000030AD1801
:1001500001302F060319B428281CB32828102811B1
:100160002D1828158B16B8282818B82828148B1293
:1001700000302D190130AF000030AD1901302F06CD
:100180000319CC28A81CCB28A810A8112D19A81534
:1001900083160C148312D228A818D228A814831608
:1001A0000C108312F828840183131F3083058316F3
:1001B00006118312061507309F008101831601087E
:1001C000C0390738810083128F018E01953090006D
:1001D0000B110C10C0308B04AD012D083520AD0A79
:1001E000F700AE00672807302D02031DED288A288E
:0801F000F7280030F80063005D
:02400E00623F0F
:00000001FF
;PIC16F628A
;CRC=71E7  CREATED="15-set-14 09:46"
