:1000000057EF03F0006A016A4F50D89050B00026B5
:100010000032013250B200260032013250B40026C4
:100020000032013250B600260032013250B80026AC
:100030000032013250BA00260032013250BC002694
:100040000032013250BE00260032013294EF00F03F
:100050004D6A4B6A0A0E4C6E4A6A4850491003E1D9
:10006000000E016EC1D04D504D2A036A4824E96E3E
:1000700049500320EA6EEFCF4EF04E502D080DE1AF
:10008000010E4B6E4D504D2A036A4824E96E4950CB
:100090000320EA6EEFCF4EF00DD04E502B080AE150
:1000A0004D504D2A036A4824E96E49500320EA6EF8
:1000B000EFCF4EF04E502F08D8B08ED04E503908AA
:1000C000D8A08AD04E50300821E1036A4D50482410
:1000D000E96E49500320EA6EEF5078080AE0036A9F
:1000E0004D504824E96E49500320EA6EEF505808FD
:1000F0000DE1100E4C6E4D2A4D504D2A036A4824D6
:10010000E96E49500320EA6EEFCF4EF04C500A08DA
:100110001BE14E502F0817E24E50390814E30A0E27
:100120004F6E4AC050F06ED7300E4E5C01244A6EBE
:100130004D504D2A036A4824E96E49500320EA6E67
:10014000EFCF4EF0E6D748D04C50100845E14E5066
:10015000600806E24E507A0803E34E50DF0B01D0F0
:100160004E504E6E4E502F0803E24E50390806E2B4
:100170004E50400831E24E5046082EE34E502F08B4
:100180000CE24E50390809E34A384F6EF00E4F1614
:10019000300E4E5C4F244A6E09D04A384F6EF00E36
:1001A0004F16410E4E5C0A0F4F244A6E4D504D2A99
:1001B000036A4824E96E49500320EA6EEFCF4EF0FF
:1001C0004E50600806E24E507A0803E34E50DF0BB3
:1001D00001D04E504E6EC6D74B2C04D04C500A085E
:1001E00001E14A6C4AC001F0120043C045F042C030
:1001F00044F044C0E9FF45C0EAFFEFCF46F0010EEE
:100200004424016E000E452001C0E9FFEA6EEFCFE5
:1002100047F0496A460E486E1BDF01508FEF03F02E
:1002200043C045F042C044F0020E4424016E000E6B
:10023000452001C0E9FFEA6EEFCF46F0030E4424EB
:10024000016E000E452001C0E9FFEA6EEFCF47F0D6
:10025000496A460E486EFCDE015095EF03F054509B
:100260005618800B586E54AE05D0531E541E532A98
:10027000D8B4542A56AE05D0551E561E552AD8B4A9
:10028000562A53505502F3CF01F0F4CF00F0560236
:10029000F350002654505502F3500020026E58AE21
:1002A00005D0011E021E012AD8B4022AC9EF01F0AE
:1002B000516A4F6A0A0E506E4E6A4D6A4B504C108E
:1002C00004E1000E016E026EE7D05150512A036A1C
:1002D0004B24E96E4C500320EA6EEFCF52F052509F
:1002E0002D080DE1010E4F6E5150512A036A4B2427
:1002F000E96E4C500320EA6EEFCF52F00DD0525011
:100300002B080AE15150512A036A4B24E96E4C50E4
:100310000320EA6EEFCF52F052502F08D8B0AED083
:1003200052503908D8A0AAD05250300821E1036AAF
:1003300051504B24E96E4C500320EA6EEF50780880
:100340000AE0036A51504B24E96E4C500320EA6ED8
:10035000EF5058080DE1100E506E512A5150512A9D
:10036000036A4B24E96E4C500320EA6EEFCF52F043
:1003700050500A0821E152502F081DE2525039080E
:100380001AE3546A0A0E536E4EC056F04DC055F033
:1003900066D7300E525C01244D6E000E02204E6E68
:1003A0005150512A036A4B24E96E4C500320EA6EE7
:1003B000EFCF52F0E0D762D0505010085FE15250BA
:1003C000600806E252507A0803E35250DF0B01D076
:1003D0005250526E52502F0803E25250390806E232
:1003E000525040084BE25250460848E352502F0802
:1003F00019E25250390816E34D34536E4E34546EA0
:10040000533654365336543653365436F00E53164C
:10041000300E525C5324016E000E542001C04DF08A
:100420004E6E16D04D34536E4E34546E5336543691
:100430005336543653365436F00E5316410E525C32
:100440000A0F5324016E000E542001C04DF04E6E71
:100450005150512A036A4B24E96E4C500320EA6E36
:10046000EFCF52F05250600806E252507A0803E390
:100470005250DF0B01D05250526EACD750500A0888
:1004800007E14F2C05D04D1E4E1E4D2AD8B44E2AE2
:100490004DC001F04EC002F088EF02F043C045F0BD
:1004A00042C044F0020E4424016E000E452001C0FB
:1004B000E9FFEA6EEFCF46F0030E4424016E000E12
:1004C000452001C0E9FFEA6EEFCF47F0040E442457
:1004D000016E000E452001C0E9FFEA6EEFCF48F043
:1004E000050E4424016E000E452001C0E9FFEA6EAE
:1004F000EFCF49F0060E4424016E000E452001C0E6
:10050000E9FFEA6EEFCF4AF04C6A460E4B6ED0D64A
:100510000250B8EF03F0EA6A450EE96EEF500EE0C4
:10052000040E016E006A002EFED7012EFBD7DC0EF2
:10053000006E002EFED70000EF2EF2D741EF03F041
:100540004850016A475C03E247C000F00CD0006AE3
:10055000080E496E473600364850005CD8B0006E31
:100560000136492EF7D71200015045C047F0640EFE
:10057000486EE6DF00C045F00150300E07E146A2AC
:100580000DD046B60BD046B8200E03D046964698FE
:100590004680012601509EA8FED7AD6E45C047F0AB
:1005A0000A0E486ECDDF00C045F00150300E06E166
:1005B00046B609D046A007D046B8200E0126015005
:1005C0009EA8FED7AD6E300E452645509EA8FED79C
:1005D000AD6E46EF03F0EACF4DF0E9CF4CF0463870
:1005E000F009486E4826E20F496E320F4B6E4650B6
:1005F0000F0B492649264B26E90F4A6E4A264A2602
:1006000045380F0B4A264B264A364B364B1E4B3687
:1006100045500F0B4B264836070E476E0A0E4A060A
:100620004B26FDE349064A26FDE348064926FDE33D
:1006300047064826FDE3EA6A470EE96E070E4C14AA
:100640004C9CE9264B0EE95CD8B44C8CEF50006E04
:1006500008E14CBC06D04CB80CD04CB602D0200EF1
:1006600003D04C864C98300E002600509EA8FED732
:10067000AD6EEE504CACE6D74DEF03F0140E456E68
:100680004AD742C045F0010E466E6ED7080EE96E9D
:1006900044C046F043C045F09ED70A0E9EA8FED740
:1006A000AD6E0D0E9EA8FED7AD6EC7EF03F0F86AD3
:1006B000D09EFE0E006E060E016E020EE96E000E5A
:1006C000EA6EEE6A002EFDD7012EFBD7EA6AE96AD0
:1006D000610EAF6EA60EAC6E900EAB6E0B680C6822
:1006E0000D680F680E68300E116E390E106EC180E5
:1006F000C182C184C196020E0B6EEA6A120EE96EC7
:10070000E9069EAAFED7AECFECFF0D0EEF5CF9E135
:10071000EC6A0C680D68436A120E426E66D501C021
:100720000CF0436A120E426E7BD501C00DF00B50E7
:100730000C5C02E0000E01D0010E426E0C5202E091
:10074000000E01D0010E421022E00D50050815E107
:10075000EA6A120EE96EE9069EAAFED7AECFECFF5A
:100760000D0EEF5CF9E1EC6A436A120E426E96D60A
:1007700002C00FF001C00EF00AD00D50040807E1CE
:100780000BC042F00FC044F00EC043F077D7B5D78E
:02079000030064
:020000040030CA
:0E00000000220E0E000181000FC00FE00F4025
:00000001FF
;PIC18F252
;CRC=B873  CREATED="22-ago-14 15:44"
