:0400000076EF02F0A5
:08000800046ED8CF05F0E0CF33
:1000100006F00001E9CF0CF0EACF07F0E1CF08F0DD
:10002000E2CF09F0D9CF0AF0DACF0BF0F3CF12F01C
:10003000F4CF13F0FACF14F0F5CF15F0F6CF16F099
:10004000F7CF17F000C00EF001C00FF002C010F0A3
:1000500003C011F09DA230EF00F09EB27DEF00F0E2
:100060009DAA36EF00F09EBA5DEF00F00EC000F0E2
:100070000FC001F010C002F011C003F00CC0E9FF86
:1000800007C0EAFF078E08C0E1FF09C0E2FF0AC00F
:10009000D9FF0BC0DAFF12C0F3FF13C0F4FF14C086
:1000A000FAFF15C0F5FF16C0F6FF17C0F7FF0450A2
:1000B00006C0E0FF05C0D8FF10009F519F2B036AC8
:1000C0001F0FE96E000E0320EA6E9EAAFED7AECF88
:1000D000EFFF036A9F511F0FE96E000E0320EA6EC7
:1000E000EF6ACC6AA2A306D0A293000E0609CA6EDC
:1000F000FF0ECB6E9E9A36EF00F09E92000ECA6EF7
:10010000FF0ECB6ECC6AA2819E9236EF00F0006AA1
:10011000016AD551D890D6B1002600320132D6B34B
:10012000002600320132D6B5002600320132D6B7A1
:10013000002600320132D6B9002600320132D6BB89
:10014000002600320132D6BD002600320132D6BF71
:1001500000260032013219EF01F0D36BD16B0A0E89
:10016000D26FD06BCE51CF1103E1000E016EC1D022
:10017000D351D32B036ACE25E96ECF510320EA6E0B
:10018000EFCFD4F0D4512D080DE1010ED16FD35132
:10019000D32B036ACE25E96ECF510320EA6EEFCF51
:1001A000D4F00DD0D4512B080AE1D351D32B036ADC
:1001B000CE25E96ECF510320EA6EEFCFD4F0D451B3
:1001C0002F08D8B08ED0D4513908D8A08AD0D451B5
:1001D000300821E1036AD351CE25E96ECF510320C7
:1001E000EA6EEF5078080AE0036AD351CE25E96E33
:1001F000CF510320EA6EEF5058080DE1100ED26F78
:10020000D32BD351D32B036ACE25E96ECF510320D4
:10021000EA6EEFCFD4F0D2510A081BE1D4512F0877
:1002200017E2D451390814E30A0ED56FD0C0D6F0C6
:100230006ED7300ED45D0124D06FD351D32B036A17
:10024000CE25E96ECF510320EA6EEFCFD4F0E6D78A
:1002500048D0D251100845E1D451600806E2D4518B
:100260007A0803E3D451DF0B01D0D451D46FD451B9
:100270002F0803E2D451390806E2D451400831E294
:10028000D45146082EE3D4512F080CE2D45139083A
:1002900009E3D039D56FF00ED517300ED45DD525D2
:1002A000D06F09D0D039D56FF00ED517410ED45D7F
:1002B0000A0FD525D06FD351D32B036ACE25E96E13
:1002C000CF510320EA6EEFCFD4F0D451600806E29C
:1002D000D4517A0803E3D451DF0B01D0D451D46F49
:1002E000C6D7D12D04D0D2510A0801E1D06DD0C0BB
:1002F00001F01200C969C8C0CDF0C7C0CCF0CDC0B4
:1003000003F0CCC0E9FFCDC0EAFFEF5204E0CC2BF4
:10031000D8B4CD2BF4D7040ECC5D006E000ECD59B1
:1003200000C0E9FFEA6EEFCFCAF0030ECC5D006EAD
:10033000000ECD5900C0E9FFEA6EEFCFCBF0CF6BD6
:10034000CA0ECE6F0ADF01C0C9F0C9C001F0B5EF17
:1003500002F0C969C8C0CDF0C7C0CCF0CDC003F071
:10036000CCC0E9FFCDC0EAFFEF5204E0CC2BD8B4FB
:10037000CD2BF4D7020ECC5D006E000ECD5900C01F
:10038000E9FFEA6EEFCFCAF0010ECC5D006E000E01
:10039000CD5900C0E9FFEA6EEFCFCBF0CF6BCA0EAC
:1003A000CE6FDBDE01C0C9F0C9C001F0BBEF02F0C7
:1003B000CC51016ACB5D03E2CBC000F00CD0006AE7
:1003C000080ECD6FCB370036CC51005CD8B0006E34
:1003D0000136CD2FF7D712000150C9C0CBF0640E03
:1003E000CC6FE6DF00C0C9F00150300E07E1CAA3B0
:1003F0000DD0CAB70BD0CAB9200E03D0CA97CA997C
:10040000CA81012601509EA8FED7AD6EC9C0CBF0AF
:100410000A0ECC6FCDDF00C0C9F00150300E06E1EE
:10042000CAB709D0CAA107D0CAB9200E0126015007
:100430009EA8FED7AD6E300EC927C9519EA8FED723
:10044000AD6EEBEF02F0EACFD1F0E9CFD0F0CA39D0
:10045000F009CC6FCC27E20FCD6F320FCF6FCA51AE
:100460000F0BCD27CD27CF27E90FCE6FCE27CE2775
:10047000C9390F0BCE27CF27CE37CF37CF1FCF3776
:10048000C9510F0BCF27CC37070ECB6F0A0ECE0703
:10049000CF27FDE3CD07CE27FDE3CC07CD27FDE336
:1004A000CB07CC27FDE3EA6ACB0EE96E070ED01529
:1004B000D09DE926CF0EE95CD8B4D08DEF50006E08
:1004C00008E1D0BD06D0D0B90CD0D0B702D0200EF4
:1004D00003D0D087D099300E002600509EA8FED7BA
:1004E000AD6EEE50D0ADE6D7F2EF02F0F86AD09ED6
:1004F000078EFE0E006E060E016E020EE96E000EF5
:10050000EA6EEE6A002EFDD7012EFBD7EA6AE96A91
:10051000610EAF6EA60EAC6E900EAB6E9F6B010EB1
:10052000A06F0A0EA16FA291A283010EA36FA46B0C
:10053000C180C182C184C1969E92CC6A000ECA6EEF
:10054000FF0ECB6ED76AD66AB00ED56E9D8A9D829D
:10055000C00EF21294908B9094928B92A2A142D0F2
:10056000A291C86B1F0EC76FC5D601C0C5F0C86B7E
:100570001F0EC76FEED601C0C6F01F6A9F6BA28325
:10058000A051C55D02E0C5532DE1C62D03D0949066
:100590008B800CD0C651020803E194928B8206D066
:1005A000C65304E194908B9094928B92C5531AE0B9
:1005B000D650D7CF03F0C76FD7CFC8F00A0E9EA88A
:1005C000FED7AD6E0D0E9EA8FED7AD6EA0C0C9F0D1
:1005D000010ECA6F01D7090EE96EC8C0CAF0C7C0C4
:0C05E000C9F031D7BBD7000E016E03003C
:020000040030CA
:0E00000000220E0E000181000FC00FE00F4025
:00000001FF
;PIC18F252
;CRC=945F  CREATED="20-ago-14 15:26"
