:1000000057EF03F0006A016A2F50D89030B00026F5
:100010000032013230B200260032013230B4002604
:100020000032013230B600260032013230B80026EC
:100030000032013230BA00260032013230BC0026D4
:100040000032013230BE00260032013294EF00F05F
:100050002D6A2B6A0A0E2C6E2A6A2850291003E199
:10006000000E016EC1D02D502D2A036A2824E96E9E
:1000700029500320EA6EEFCF2EF02E502D080DE10F
:10008000010E2B6E2D502D2A036A2824E96E29506B
:100090000320EA6EEFCF2EF00DD02E502B080AE190
:1000A0002D502D2A036A2824E96E29500320EA6E78
:1000B000EFCF2EF02E502F08D8B08ED02E5039080A
:1000C000D8A08AD02E50300821E1036A2D50282470
:1000D000E96E29500320EA6EEF5078080AE0036ABF
:1000E0002D502824E96E29500320EA6EEF5058085D
:1000F0000DE1100E2C6E2D2A2D502D2A036A282476
:10010000E96E29500320EA6EEFCF2EF02C500A083A
:100110001BE12E502F0817E22E50390814E30A0E67
:100120002F6E2AC030F06ED7300E2E5C01242A6E5E
:100130002D502D2A036A2824E96E29500320EA6EE7
:10014000EFCF2EF0E6D748D02C50100845E12E50C6
:10015000600806E22E507A0803E32E50DF0B01D030
:100160002E502E6E2E502F0803E22E50390806E234
:100170002E50400831E22E5046082EE32E502F0814
:100180000CE22E50390809E32A382F6EF00E2F1694
:10019000300E2E5C2F242A6E09D02A382F6EF00ED6
:1001A0002F16410E2E5C0A0F2F242A6E2D502D2A59
:1001B000036A2824E96E29500320EA6EEFCF2EF05F
:1001C0002E50600806E22E507A0803E32E50DF0B13
:1001D00001D02E502E6EC6D72B2C04D02C500A08DE
:1001E00001E12A6C2AC001F0120023C025F022C0D0
:1001F00024F024C0E9FF25C0EAFFEFCF26F0010E6E
:100200002424016E000E252001C0E9FFEA6EEFCF25
:1002100027F0296A260E286E1BDF01508FEF03F0AE
:1002200023C025F022C024F0020E2424016E000E0B
:10023000252001C0E9FFEA6EEFCF26F0030E24244B
:10024000016E000E252001C0E9FFEA6EEFCF27F016
:10025000296A260E286EFCDE015095EF03F034501B
:100260003618800B386E34AE05D0331E341E332A58
:10027000D8B4342A36AE05D0351E361E352AD8B449
:10028000362A33503502F3CF01F0F4CF00F03602B6
:10029000F350002634503502F3500020026E38AE81
:1002A00005D0011E021E012AD8B4022AC9EF01F0AE
:1002B000316A2F6A0A0E306E2E6A2D6A2B502C106E
:1002C00004E1000E016E026EE7D03150312A036A5C
:1002D0002B24E96E2C500320EA6EEFCF32F032501F
:1002E0002D080DE1010E2F6E3150312A036A2B24A7
:1002F000E96E2C500320EA6EEFCF32F00DD0325071
:100300002B080AE13150312A036A2B24E96E2C5064
:100310000320EA6EEFCF32F032502F08D8B0AED0C3
:1003200032503908D8A0AAD03250300821E1036AEF
:1003300031502B24E96E2C500320EA6EEF507808E0
:100340000AE0036A31502B24E96E2C500320EA6E38
:10035000EF5058080DE1100E306E312A3150312A1D
:10036000036A2B24E96E2C500320EA6EEFCF32F0A3
:1003700030500A0821E132502F081DE2325039086E
:100380001AE3346A0A0E336E2EC036F02DC035F0F3
:1003900066D7300E325C01242D6E000E02202E6EC8
:1003A0003150312A036A2B24E96E2C500320EA6E67
:1003B000EFCF32F0E0D762D0305010085FE132501A
:1003C000600806E232507A0803E33250DF0B01D0B6
:1003D0003250326E32502F0803E23250390806E2B2
:1003E000325040084BE23250460848E332502F0862
:1003F00019E23250390816E32D34336E2E34346E40
:10040000333634363336343633363436F00E33162C
:10041000300E325C3324016E000E342001C02DF00A
:100420002E6E16D02D34336E2E34346E3336343671
:100430003336343633363436F00E3316410E325CF2
:100440000A0F3324016E000E342001C02DF02E6EF1
:100450003150312A036A2B24E96E2C500320EA6EB6
:10046000EFCF32F03250600806E232507A0803E3F0
:100470003250DF0B01D03250326EACD730500A0808
:1004800007E12F2C05D02D1E2E1E2D2AD8B42E2A82
:100490002DC001F02EC002F088EF02F023C025F03D
:1004A00022C024F0020E2424016E000E252001C07B
:1004B000E9FFEA6EEFCF26F0030E2424016E000E52
:1004C000252001C0E9FFEA6EEFCF27F0040E2424B7
:1004D000016E000E252001C0E9FFEA6EEFCF28F083
:1004E000050E2424016E000E252001C0E9FFEA6EEE
:1004F000EFCF29F0060E2424016E000E252001C046
:10050000E9FFEA6EEFCF2AF02C6A260E2B6ED0D6CA
:100510000250B8EF03F02850016A275C03E227C0BD
:1005200000F00CD0006A080E296E273600362850DD
:10053000005CD8B0006E0136292EF7D712000150AA
:1005400025C027F0640E286EE6DF00C025F00150BC
:10055000300E07E126A20DD026B60BD026B8200E0D
:1005600003D0269626982680012601509EA8FED705
:10057000AD6E25C027F00A0E286ECDDF00C025F035
:100580000150300E06E126B609D026A007D026B8C5
:10059000200E012601509EA8FED7AD6E300E2526F6
:1005A00025509EA8FED7AD6E43EF03F0EACF2DF0A5
:1005B000E9CF2CF02638F009286E2826E20F296EA4
:1005C000320F2B6E26500F0B292629262B26E90FDA
:1005D0002A6E2A262A2625380F0B2A262B262A366B
:1005E0002B362B1E2B3625500F0B2B262836070EAD
:1005F000276E0A0E2A062B26FDE329062A26FDE38E
:1006000028062926FDE327062826FDE3EA6A270EA9
:10061000E96E070E2C142C9CE9262B0EE95CD8B44D
:100620002C8CEF50006E08E12CBC06D02CB80CD0FE
:100630002CB602D0200E03D02C862C98300E00262B
:1006400000509EA8FED7AD6EEE502CACE6D74AEF18
:1006500003F0EA6A250EE96EEF500EE0040E016E1B
:10066000006A002EFED7012EFBD7DC0E006E002E96
:10067000FED70000EF2EF2D755EF03F022C025F091
:10068000010E266E5CD7080EE96E24C026F023C04A
:1006900025F08CD70A0E9EA8FED7AD6E0D0E9EA833
:1006A000FED7AD6E140E256ED4D7C7EF03F0F86AEF
:1006B000D09EFE0E006E060E016E020EE96E000E5A
:1006C000EA6EEE6A002EFDD7012EFBD7EA6AE96AD0
:1006D000610EAF6EA60EAC6E900EAB6E0B680C6822
:1006E0000D680F680E68300E116E390E106EC180E5
:1006F000C182C184C196010E0B6EEA6A120EE96EC8
:10070000E9069EAAFED7AECFECFF0D0EEF5CF9E135
:10071000EC6A0C680D68236A120E226E66D501C061
:100720000CF0236A120E226E7BD501C00DF00B5027
:100730000C5C02E0000E01D0010E226E0C5202E0B1
:10074000000E01D0010E221022E00D50050815E127
:10075000EA6A120EE96EE9069EAAFED7AECFECFF5A
:100760000D0EEF5CF9E1EC6A236A120E226E96D64A
:1007700002C00FF001C00EF00AD00D50040807E1CE
:100780000BC022F0300E246E390E236E77D7B5D70A
:02079000030064
:020000040030CA
:0E00000000220E0E000181000FC00FE00F4025
:00000001FF
;PIC18F252
;CRC=00CF  CREATED="22-ago-14 10:28"
