:10000000A3EF03F0006A016A7450D89075B000261F
:100010000032013275B200260032013275B400267A
:100020000032013275B600260032013275B8002662
:100030000032013275BA00260032013275BC00264A
:100040000032013275BE00260032013294EF00F01A
:10005000726A706A0A0E716E6F6A6D506E1003E1FB
:10006000000E016EC1D07250722A036A6D24E96ECF
:100070006E500320EA6EEFCF73F073502D080DE140
:10008000010E706E7250722A036A6D24E96E6E5012
:100090000320EA6EEFCF73F00DD073502B080AE106
:1000A0007250722A036A6D24E96E6E500320EA6E64
:1000B000EFCF73F073502F08D8B08ED0735039083B
:1000C000D8A08AD07350300821E1036A72506D24A1
:1000D000E96E6E500320EA6EEF5078080AE0036A7A
:1000E00072506D24E96E6E500320EA6EEF5058088E
:1000F0000DE1100E716E722A7250722A036A6D241D
:10010000E96E6E500320EA6EEFCF73F071500A086B
:100110001BE173502F0817E27350390814E30A0EDD
:10012000746E6FC075F06ED7300E735C01246F6E05
:100130007250722A036A6D24E96E6E500320EA6ED3
:10014000EFCF73F0E6D748D07150100845E17350F7
:10015000600806E273507A0803E37350DF0B01D0A6
:100160007350736E73502F0803E27350390806E220
:100170007350400831E2735046082EE373502F0845
:100180000CE27350390809E36F38746EF00E741680
:10019000300E735C74246F6E09D06F38746EF00E7D
:1001A0007416410E735C0A0F74246F6E7250722ABB
:1001B000036A6D24E96E6E500320EA6EEFCF73F090
:1001C0007350600806E273507A0803E37350DF0B44
:1001D00001D07350736EC6D7702C04D071500A08CA
:1001E00001E16F6C6FC001F0120068C06AF067C077
:1001F00069F069C0E9FF6AC0EAFFEFCF6BF0010E5A
:100200006924016E000E6A2001C0E9FFEA6EEFCF9B
:100210006CF06E6A6B0E6D6E1BDF015069EF03F0C0
:1002200068C06AF067C069F0020E6924016E000EB2
:100230006A2001C0E9FFEA6EEFCF6BF0030E69247C
:10024000016E000E6A2001C0E9FFEA6EEFCF6CF08C
:100250006E6A6B0E6D6EFCDE01506FEF03F079502D
:100260007B18800B7D6E79AE05D0781E791E782ABA
:10027000D8B4792A7BAE05D07A1E7B1E7A2AD8B4F0
:100280007B2A78507A02F3CF01F0F4CF00F07B02A2
:10029000F350002679507A02F3500020026E7DAEB2
:1002A00005D0011E021E012AD8B4022AC9EF01F0AE
:1002B000766A746A0A0E756E736A726A705071108B
:1002C00004E1000E016E026EE7D07650762A036AD2
:1002D0007024E96E71500320EA6EEFCF77F077500B
:1002E0002D080DE1010E746E7650762A036A702493
:1002F000E96E71500320EA6EEFCF77F00DD07750A2
:100300002B080AE17650762A036A7024E96E715050
:100310000320EA6EEFCF77F077502F08D8B0AED039
:1003200077503908D8A0AAD07750300821E1036A65
:1003300076507024E96E71500320EA6EEF50780811
:100340000AE0036A76507024E96E71500320EA6E69
:10035000EF5058080DE1100E756E762A7650762A09
:10036000036A7024E96E71500320EA6EEFCF77F0D4
:1003700075500A0821E177502F081DE2775039089F
:100380001AE3796A0A0E786E73C07BF072C07AF055
:1003900066D7300E775C0124726E000E0220736EF9
:1003A0007650762A036A7024E96E71500320EA6E53
:1003B000EFCF77F0E0D762D0755010085FE177504B
:1003C000600806E277507A0803E37750DF0B01D02C
:1003D0007750776E77502F0803E27750390806E29E
:1003E000775040084BE27750460848E377502F0893
:1003F00019E27750390816E37234786E7334796EE7
:10040000783679367836793678367936F00E781649
:10041000300E775C7824016E000E792001C072F0F6
:10042000736E16D07234786E7334796E783679368E
:100430007836793678367936F00E7816410E775C54
:100440000A0F7824016E000E792001C072F0736EDD
:100450007650762A036A7024E96E71500320EA6EA2
:10046000EFCF77F07750600806E277507A0803E321
:100470007750DF0B01D07750776EACD775500A08F4
:1004800007E1742C05D0721E731E722AD8B4732A29
:1004900072C001F073C002F088EF02F068C06AF029
:1004A00067C069F0020E6924016E000E6A2001C067
:1004B000E9FFEA6EEFCF6BF0030E6924016E000EC8
:1004C0006A2001C0E9FFEA6EEFCF6CF0040E6924E8
:1004D000016E000E6A2001C0E9FFEA6EEFCF6DF0F9
:1004E000050E6924016E000E6A2001C0E9FFEA6E64
:1004F000EFCF6EF0060E6924016E000E6A2001C077
:10050000E9FFEA6EEFCF6FF0716A6B0E706ED0D6B6
:10051000025092EF03F0EA6A6A0EE96EEF500EE0C5
:10052000040E016E006A002EFED7012EFBD7DC0EF2
:10053000006E002EFED70000EF2EF2D741EF03F041
:100540006D50016A6C5C03E26CC000F00CD0006A74
:10055000080E6E6E6C3600366D50005CD8B0006EC2
:1005600001366E2EF7D7120001506AC06CF0640E8F
:100570006D6EE6DF00C06AF00150300E07E16BA23D
:100580000DD06BB60BD06BB8200E03D06B966B986A
:100590006B80012601509EA8FED7AD6E6AC06CF03C
:1005A0000A0E6D6ECDDF00C06AF00150300E06E11C
:1005B0006BB609D06BA007D06BB8200E0126015096
:1005C0009EA8FED7AD6E300E6A266A509EA8FED752
:1005D000AD6E46EF03F0EACF72F0E9CF71F06B3801
:1005E000F0096D6E6D26E20F6E6E320F706E6B50FD
:1005F0000F0B6E266E267026E90F6F6E6F266F2624
:100600006A380F0B6F2670266F367036701E703684
:100610006A500F0B70266D36070E6C6E0A0E6F0651
:100620007026FDE36E066F26FDE36D066E26FDE384
:100630006C066D26FDE3EA6A6C0EE96E070E711416
:10064000719CE926700EE95CD8B4718CEF50006E95
:1006500008E171BC06D071B80CD071B602D0200E82
:1006600003D071867198300E002600509EA8FED7E8
:10067000AD6EEE5071ACE6D74DEF03F0140E6A6E1E
:100680004AD767C06AF0010E6B6E6ED7080EE96E2E
:1006900069C06BF068C06AF09ED70A0E9EA8FED7AC
:1006A000AD6E0D0E9EA8FED7AD6EA1EF03F0EA6A07
:1006B000120EE96EE9069EAAFED7AECFECFF0D0E34
:1006C000EF5CF9E1EC6A0C680D68686A120E676EFF
:1006D0008CD501C00CF0686A120E676EA1D501C0FE
:1006E0000DF00B500C5C02E0000E01D0010E676EA5
:1006F0000C5202E0000E01D0010E671022E00D50F6
:10070000050815E1EA6A120EE96EE9069EAAFED70F
:10071000AECFECFF0D0EEF5CF9E1EC6A686A120EE9
:10072000676EBCD602C00FF001C00EF00AD00D50AB
:10073000040807E10BC067F00FC069F00EC068F055
:100740009DD7CEEF03F0F86AD09EFE0E006E060E27
:10075000016E020EE96E000EEA6EEE6A002EFDD703
:10076000012EFBD7EA6AE96A610EAF6EA60EAC6E87
:10077000900EAB6E0B680C680D68300E0F6E390E64
:100780000E6E300E116E390E106E020E236EC18089
:10079000C182C184C196020E0B6E89D7FED7000EAE
:0407A000016E0300E3
:020000040030CA
:0E00000000220E0E000181000FC00FE00F4025
:00000001FF
;PIC18F252
;CRC=F5CF  CREATED="22-ago-14 15:55"
