:0400000037EF01F0E5
:08000800046ED8CF05F0E0CF33
:1000100006F00001E9CF0CF0EACF07F0E1CF08F0DD
:10002000E2CF09F0D9CF0AF0DACF0BF0F3CF12F01C
:10003000F4CF13F0FACF14F0F5CF15F0F6CF16F099
:10004000F7CF17F000C00EF001C00FF002C010F0A3
:1000500003C011F09DA230EF00F09EB27FEF00F0E0
:100060009DAA36EF00F09EBA5DEF00F00EC000F0E2
:100070000FC001F010C002F011C003F00CC0E9FF86
:1000800007C0EAFF078E08C0E1FF09C0E2FF0AC00F
:10009000D9FF0BC0DAFF12C0F3FF13C0F4FF14C086
:1000A000FAFF15C0F5FF16C0F6FF17C0F7FF0450A2
:1000B00006C0E0FF05C0D8FF100001011951192B3F
:1000C000036A190FE96E000E0320EA6E9EAAFED79E
:1000D000AECFEFFF036A1951190FE96E000E03202E
:1000E000EA6EEF6ACC6A1CA306D01C93000E0609C8
:1000F000CA6EFF0ECB6E9E9A000136EF00F09E9204
:10010000000ECA6EFF0ECB6ECC6A01011C819E925E
:10011000000136EF00F001012451016A235D03E282
:1001200023C100F00CD0006A080E256F233700367B
:100130002451005CD8B0006E0136252FF7D700019E
:100140001200015021C123F1640E0101246F00014E
:10015000E2DF00C021F10150300E08E1010122A3CD
:100160000ED022B70CD022B9200E04D00101229764
:1001700022992281012601509EA8FED7AD6E21C191
:1001800023F10A0E246F0001C6DF00C021F10150E7
:10019000300E08E1010122B70BD022A109D022B90B
:1001A000200E0001012601509EA8FED7AD6E010170
:1001B000300E212721519EA8FED7AD6E000198EF89
:1001C00001F0EACF29F1E9CF28F101012239F00944
:1001D000246F2427E20F256F320F276F22510F0B58
:1001E000252725272727E90F266F262726272139A8
:1001F0000F0B2627272726372737271F2737215179
:100200000F0B27272437070E236F0A0E26072727F1
:10021000FDE325072627FDE324072527FDE3230724
:100220002427FDE3010EEA6E230EE96E070E281562
:10023000289DE926270EE95CD8B4288DEF50006E82
:1002400008E128BD06D028B90CD028B702D0200E6E
:1002500003D028872899300E002600509EA8FED78C
:10026000AD6EEE5028ADE6D700019FEF01F0F86AC1
:10027000D09E078EFE0E006E060E016E020EE96E17
:10028000000EEA6EEE6A002EFDD7012EFBD7EA6A59
:10029000E96A610EAF6EA60EAC6E900EAB6E0101F8
:1002A000196B1A6B010E1B6F1C911C83C180C182DC
:1002B000C184C1969E92CC6A000ECA6EFF0ECB6EB0
:1002C000D76AD66AB00ED56E9D8A9D82C00EF21294
:1002D00094908B9094928B921CA132D01C91300EF2
:1002E000195C1D6F300E1A5C1E6F196A196B1C8326
:1002F0001D511B5D25E11E2D03D094908B800CD0E9
:100300001E51020803E194928B8206D01E5304E131
:1003100094908B9094928B92D650D7CF03F01F6F0E
:10032000D7CF20F11BC121F11B0E226F000109D78D
:10033000100EE96E20C122F11FC121F142D7010147
:08034000CBD7000E016E030093
:020000040030CA
:0E00000000220E0E000181000FC00FE00F4025
:00000001FF
;PIC18F252
;CRC=D865  CREATED="18-ago-14 16:17"
