:04000000E8EF04F031
:08000800046ED8CF05F0E0CF33
:1000100006F00001E9CF0CF0EACF07F0E1CF08F0DD
:10002000E2CF09F0D9CF0AF0DACF0BF0F3CF12F01C
:10003000F4CF13F0FACF14F0F5CF15F0F6CF16F099
:10004000F7CF17F000C00EF001C00FF002C010F0A3
:1000500003C011F09DAA30EF00F09EBAA2EF00F0AD
:100060000EC000F00FC001F010C002F011C003F08C
:100070000CC0E9FF07C0EAFF078E08C0E1FF09C016
:10008000E2FF0AC0D9FF0BC0DAFF12C0F3FF13C0B2
:10009000F4FF14C0FAFF15C0F5FF16C0F6FF17C035
:1000A000F7FF045006C0E0FF05C0D8FF1000496EFE
:1000B0006963696F204D65737472653A0A0D256432
:1000C000206573637261766F730A0D00496E696310
:1000D000696F204573637261766F3A0A0D456E64ED
:1000E000657265636F3A2025640A0D0097C099F028
:1000F00096C098F099C003F098C0E9FF99C0EAFF54
:10010000EF521CE099C003F098C0E9FF99C0EAFFE4
:10011000EF500A080FE1010E9825016E000E99219B
:10012000036E01C0E9FFEA6EEF500D0803E1010E16
:10013000016E06D0982BD8B4992BDCD7000E016E37
:10014000BDEF00F02850282A036A290FE96E000E3F
:100150000320EA6E9EAAFED7AECFEFFF036A2850B7
:10016000290F016E000E032203C0EAFF01C0E9FF60
:10017000EF6A976B290E966FB9D71F9201B01F8255
:100180001FA203D0285201E0286A9E9A30EF00F0A7
:10019000926880CF7FF092688050F00B006E003A3A
:1001A0000F0E001600500F0B016E67EF01F09490D8
:1001B0008B9094928B92D6503B26D7503C22D76A94
:1001C000D66A6AEF01F00900F6CF80F0F7CF81F030
:1001D000F5509EA8FED7AD6E80C0F6FF81C0F7FF38
:1001E0007F2EF1D771EF01F08651016A855D03E240
:1001F00085C000F00CD0006A080E876F8537003686
:100200008651005CD8B0006E0136872FF7D71200F8
:10021000200E80A9300E816F7FC000F07FAE08D025
:10022000001E002A00C07FF02D0E816F808F80811C
:1002300001507FC085F0640E866FD6DF00C07FF06E
:10024000300E0124826F7FC085F00A0E866FCCDFEE
:10025000300E0024846F300E0124836F81C000F0C3
:10026000300E825D04E0808380BF808512D081C023
:1002700082F0200E816F300E835D04E0808180BFAC
:10028000808307D0D8A4808104E182C083F0200E4F
:10029000826F80B505D080B307D080B109D00CD073
:1002A00081519EA8FED7AD6E82519EA8FED7AD6E3D
:1002B00083519EA8FED7AD6E84519EA8FED7AD6E29
:1002C00076EF01F09D8AC00EF212236A61D701C059
:1002D00020F06DD7CC0EF66E000EF76E1B0E7F6E03
:1002E00072D720C07FF0180E806F92D70A0E9EA89A
:1002F000FED7AD6E0D0E9EA8FED7AD6E15EF05F0C4
:10030000006A016A8C51D8908DB10026003201320A
:100310008DB30026003201328DB500260032013245
:100320008DB70026003201328DB90026003201322D
:100330008DBB0026003201328DBD00260032013215
:100340008DBF00260032013212EF02F08A6B886BFB
:100350000A0E896F876B8551861103E1000E016ECD
:10036000C1D08A518A2B036A8525E96E8651032004
:10037000EA6EEFCF8BF08B512D080DE1010E886FE7
:100380008A518A2B036A8525E96E86510320EA6E1D
:10039000EFCF8BF00DD08B512B080AE18A518A2BBD
:1003A000036A8525E96E86510320EA6EEFCF8BF054
:1003B0008B512F08D8B08ED08B513908D8A08AD055
:1003C0008B51300821E1036A8A518525E96E8651F7
:1003D0000320EA6EEF5078080AE0036A8A51852507
:1003E000E96E86510320EA6EEF5058080DE1100EB9
:1003F000896F8A2B8A518A2B036A8525E96E86517B
:100400000320EA6EEFCF8BF089510A081BE18B5174
:100410002F0817E28B51390814E30A0E8C6F87C03E
:100420008DF06ED7300E8B5D0124876F8A518A2B39
:10043000036A8525E96E86510320EA6EEFCF8BF0C3
:10044000E6D748D08951100845E18B51600806E293
:100450008B517A0803E38B51DF0B01D08B518B6FEB
:100460008B512F0803E28B51390806E28B5140086B
:1004700031E28B5146082EE38B512F080CE28B5151
:10048000390809E387398C6FF00E8C17300E8B5DBD
:100490008C25876F09D087398C6FF00E8C17410E31
:1004A0008B5D0A0F8C25876F8A518A2B036A8525FD
:1004B000E96E86510320EA6EEFCF8BF08B51600816
:1004C00006E28B517A0803E38B51DF0B01D08B518D
:1004D0008B6FC6D7882D04D089510A0801E1876D3A
:1004E00087C001F0120080C082F07FC081F081C01F
:1004F000E9FF82C0EAFFEFCF83F0010E8125016E94
:10050000000E822101C0E9FFEA6EEFCF84F0866B16
:10051000830E856F1BDF0150BBEF04F080C082F0BB
:100520007FC081F0020E8125016E000E822101C084
:10053000E9FFEA6EEFCF83F0030E8125016E000E16
:10054000822101C0E9FFEA6EEFCF84F0866B830E53
:10055000856FFCDE0150C1EF04F091519319800BBF
:10056000956F91AF05D0901F911F902BD8B4912B10
:1005700093AF05D0921F931F922BD8B4932B905119
:100580009203F3CF01F0F4CF00F09303F350002671
:1005900091519203F3500020026E95AF05D0011ED9
:1005A000021E012AD8B4022A47EF03F08E6B8C6B2F
:1005B0000A0E8D6F8B6B8A6B8851891104E1000ED6
:1005C000016E026EE7D08E518E2B036A8825E96E8C
:1005D00089510320EA6EEFCF8FF08F512D080DE186
:1005E000010E8C6F8E518E2B036A8825E96E89511E
:1005F0000320EA6EEFCF8FF00DD08F512B080AE168
:100600008E518E2B036A8825E96E89510320EA6E8C
:10061000EFCF8FF08F512F08D8B0AED08F5139085F
:10062000D8A0AAD08F51300821E1036A8E518825C5
:10063000E96E89510320EA6EEF5078080AE0036AF8
:100640008E518825E96E89510320EA6EEF505808D3
:100650000DE1100E8D6F8E2B8E518E2B036A882527
:10066000E96E89510320EA6EEFCF8FF08D510A08B1
:1006700021E18F512F081DE28F5139081AE3916B48
:100680000A0E906F8BC093F08AC092F066D7300E3E
:100690008F5D01248A6F000E02208B6F8E518E2B8E
:1006A000036A8825E96E89510320EA6EEFCF8FF047
:1006B000E0D762D08D5110085FE18F51600806E2EB
:1006C0008F517A0803E38F51DF0B01D08F518F6F69
:1006D0008F512F0803E28F51390806E28F514008ED
:1006E0004BE28F51460848E38F512F0819E28F5192
:1006F000390816E38A35906F8B35916F90379137B3
:100700009037913790379137F00E9017300E8F5DFC
:100710009025016E000E912101C08AF08B6F16D0DA
:100720008A35906F8B35916F90379137903791372D
:1007300090379137F00E9017410E8F5D0A0F90257C
:10074000016E000E912101C08AF08B6F8E518E2BAD
:10075000036A8825E96E89510320EA6EEFCF8FF096
:100760008F51600806E28F517A0803E38F51DF0B47
:1007700001D08F518F6FACD78D510A0807E18C2DB6
:1007800005D08A1F8B1F8A2BD8B48B2B8AC001F00F
:100790008BC002F0FAEF03F080C082F07FC081F0DE
:1007A000276A2750040822E3036A2750830F016E4B
:1007B000000E032201C088F003C089F02750812574
:1007C0008A6F000E82218B6F020E8A25016E000E49
:1007D0008B2101C0E9FFEA6EEFCF8AF089C0EAFF02
:1007E00088C0E9FF8AC0EFFF272ADBD7896B830E19
:1007F000886FDCD60250D2EF04F0EA6A820EE96E0E
:10080000EF500EE0040E016E006A002EFED7012E9E
:10081000FBD7DC0E006E002EFED70000EF2EF2D7C5
:100820009FEF04F0015082C085F0640E866FDCDC1F
:1008300000C082F00150300E07E183A30DD083B7D2
:100840000BD083B9200E03D083978399838101262F
:1008500001509EA8FED7AD6E82C085F00A0E866F4D
:10086000C3DC00C082F00150300E06E183B709D02E
:1008700083A107D083B9200E012601509EA8FED780
:10088000AD6E300E822782519EA8FED7AD6EA4EFCA
:1008900004F0EACF8AF0E9CF89F08339F009856F57
:1008A0008527E20F866F320F886F83510F0B8627E3
:1008B00086278827E90F876F8727872782390F0BBD
:1008C0008727882787378837881F883782510F0BFB
:1008D00088278537070E846F0A0E87078827FDE370
:1008E00086078727FDE385078627FDE3840785279D
:1008F000FDE3EA6A840EE96E070E8915899DE926F3
:10090000880EE95CD8B4898DEF50006E08E189BD8E
:1009100006D089B90CD089B702D0200E03D08987C0
:100920008999300E002600509EA8FED7AD6EEE507D
:1009300089ADE6D7ABEF04F0140E826F5ED77FC0AF
:1009400082F0010E836F6ED7080EE96E81C083F0CE
:1009500080C082F09ED70A0E9EA8FED7AD6E0D0E07
:100960009EA8FED7AD6EE4EF04F021682468806B8A
:10097000290E7F6EB8D501C021F0806B290E7F6EE5
:10098000CDD501C024F02050215C02E021521CE1B1
:10099000245005080CE11FA2FED71F92806B290E80
:1009A0007F6EFAD602C03AF001C039F00DD0245063
:1009B00004080AE13B2AD8B43C2A20C07FF03CC09E
:1009C00081F03BC080F0B8D724C001F019EF05F0EA
:1009D000F86AD09E078EFE0E006E060E016E020EA5
:1009E000E96E000EEA6EEE6A002EFDD7012EFBD7EF
:1009F000EA6AE96A610EAF6EA60EAC6E900EAB6E3F
:100A0000206821682268236824682568020E266E03
:100A1000300E3A6E390E396E300E3C6E390E3B6E2A
:100A2000C180C182C184C1964DD41FA202D01F9241
:0A0A30009CD7FBD7000E016E0300F7
:020000040030CA
:0E00000000220E0E000181000FC00FE00F4025
:00000001FF
;PIC18F252
;CRC=60EF  CREATED="15-set-14 16:00"
